:020000040800F2
:10000000005000202D180008551700085B17000845
:1000100061170008671700086D170008000000004E
:10002000000000000000000000000000731700083E
:100030007F170008000000008B17000897170008C2
:10004000751800087518000875180008751800085C
:10005000751800087518000875180008751800084C
:10006000751800087518000875180008751800083C
:10007000751800087518000875180008751800082C
:10008000751800087518000875180008751800081C
:10009000751800087518000875180008751800080C
:1000A00075180008A51700087518000875180008CD
:1000B00075180008B9170008D5170008751800084A
:1000C00075180008751800087518000875180008DC
:1000D000E9170008FD1700087518000875180008D2
:1000E00011180008751800087518000800000000B5
:1000F0000000000000000000000000000000000000
:0C01000000000000000000005FF808F1A3
:10010C0010B5054C237833B9044B13B10448AFF345
:10011C0000800123237010BD14000020000000009B
:10012C00085F000808B5034B1BB103490348AFF344
:10013C00008008BD0000000018000020085F0008C7
:10014C0080B5B0B004AFF860B9607A603B60D24B58
:10015C0000221A700023C7F88C300023C7F88830AF
:10016C000023C7F8AC300023C7F8A8300FE0D7F84D
:10017C00A8309B00FA6813441B68D7F8AC201344D2
:10018C00C7F8AC30D7F8A8300133C7F8A830D7F887
:10019C00A820BB689A42EADBBB68D7F8AC20B2FB5C
:1001AC00F3F3C7F8AC300023C7F8A83013E0D7F846
:1001BC00A8309B00FA6813441B68D7F8AC20D31AFC
:1001CC001946B64AD7F8A83042F82310D7F8A83009
:1001DC000133C7F8A830D7F8A820BB689A42E6DBF1
:1001EC000023C7F8A83028E0AC4AD7F8A83052F85A
:1001FC002320D7F8A8300133A84951F823301A44EA
:10020C00D7F8A8300233A54951F823301A44D7F84F
:10021C00A8300333A14951F823301344002B00DAE2
:10022C0003339B1019469D4AD7F8A83042F8231087
:10023C00D7F8A8300133C7F8A830D7F8A8305F2B0F
:10024C00D2DD0023C7F89C300023C7F8A8300EE09D
:10025C00924AD7F8A83052F82330D7F89C20134490
:10026C00C7F89C30D7F8A8300133C7F8A830D7F8B6
:10027C00A830632BECDDD7F89C30894A82FB031243
:10028C005211DB17D31AC7F89C30D7F89C301D2BB2
:10029C0002DC1E23C7F89C30D7F89C303C2B02DDC7
:1002AC003C23C7F89C300023C7F8A8300CE0D7F8E3
:1002BC00A8309B00B0333B44002243F8882CD7F87D
:1002CC00A8300133C7F8A830D7F8A8300E2BEEDDD4
:1002DC0007F1640107F128000F2302930423019313
:1002EC00D7F89C30009364236C4A00F03DFA00234D
:1002FC00C7F898307B6E012B38DD0123C7F8A83086
:10030C0019E0D7F8A8309B00B0333B4453F8882C45
:10031C00D7F8A830013B9B00B0333B4453F8883CE2
:10032C00D31AD7F898201344C7F89830D7F8A830C8
:10033C000133C7F8A8307B6ED7F8A8209A42E0DBCF
:10034C007B6E013BD7F8982092FBF3F3C7F89830FB
:10035C0040F2DC52D7F8983092FBF3F2D7F8BC306D
:10036C001A60D7F8C03001221A7007E0D7F8BC30F9
:10037C004C4A1A60D7F8C03000221A700023C7F814
:10038C00A8301CE0D7F8A8309B00FA6813441B680F
:10039C001946424AD7F8A83042F82310D7F8A830AB
:1003AC009B007A6813441B6819463F4AD7F8A8305B
:1003BC0042F82310D7F8A8300133C7F8A830D7F883
:1003CC00A820BB689A42DDDB7B6EC7F88030002327
:1003DC00C7F884300023C7F8A4300023C7F8A8302E
:1003EC000CE0D7F8A8309B00B0333B44002243F814
:1003FC009C2CD7F8A8300133C7F8A830D7F8A83010
:10040C00042BEEDD0023C7F8A83015E0D7F8A83090
:10041C009B00B0333B4453F8883C642B07DD3B68AE
:10042C00204A1A60D7F8B83000221A708FE1D7F83A
:10043C00A8300133C7F8A830D7F8A820D7F88030F7
:10044C009A42E3DB0023C7F8A8302CE14FF07F433E
:10045C00C7F894304FF07F43C7F89030D7F8A830E6
:10046C0001339B00B0333B4453F8882CD7F8A830A9
:10047C009B00B0333B4453F8883CD31A032B40F316
:10048C000D81D7F8A8309B00B0333B4453F8883C1F
:10049C00C7F8A03037E000BF00000020300000207B
:1004AC001F85EB5119FCFFFFC0010020A94AD7F8AA
:1004BC00A03052F82330D7F890209A420ADAA54A95
:1004CC00D7F8A03052F82330C7F89030D7F8A030C6
:1004DC00C7F88830A04AD7F8A03052F82330D7F8A4
:1004EC0094209A420ADA9C4AD7F8A03052F823306A
:1004FC00C7F89430D7F8A030C7F88C30D7F8A030B4
:10050C000133C7F8A030D7F8A83001339B00B033C3
:10051C003B4453F8883CD7F8A0209A42C6DBD7F866
:10052C00A83001339B00B0333B4453F8883C8A4AD3
:10053C0052F82320D7F8A8309B00B0333B4453F833
:10054C00883C854951F82330D21AD7F8A8309B0043
:10055C00B0333B4453F8883CD7F88C10CB1A02FBD1
:10056C0003F37B67D7F8A8309B00B0333B4453F8B8
:10057C00883C794A52F82320D7F8A83001339B00E5
:10058C00B0333B4453F8881CD7F8A8309B00B033E9
:10059C003B4453F8883CCB1A796F91FBF3F313442B
:1005AC007B676D4AD7F88C3052F823207B6FD31AB7
:1005BC007B67D7F8A83001339B00B0333B4453F82A
:1005CC00883C644A52F82320D7F8A8309B00B033FB
:1005DC003B4453F8883C5F4951F82330D21AD7F882
:1005EC00A8309B00B0333B4453F8883CD7F88810B4
:1005FC00CB1A02FB03F33B67D7F8A8309B00B03350
:10060C003B4453F8883C534A52F82320D7F8A8307F
:10061C0001339B00B0333B4453F8881CD7F8A83007
:10062C009B00B0333B4453F8883CCB1A396F91FB99
:10063C00F3F313443B67474AD7F88C3052F8232026
:10064C003B6FD31A3B677B6FD7F8902002FB03F309
:10065C00DB11FB663B6FD7F8942002FB03F3DB1135
:10066C00BB66BB6E002B19DDD7F8A430042B15DC50
:10067C00FB6E002B12D0FB6E642203FB02F2BB6EEE
:10068C0092FBF3F2D7F8A4309B00B0333B4443F811
:10069C009C2CD7F8A4300133C7F8A430D7F8A83075
:1006AC000133C7F8A830D7F88030013BD7F8A82021
:1006BC009A42FFF6CBAE07F11403D7F8A4101846F4
:1006CC0000F046F9D7F8A430DA0F13445B10FB673F
:1006DC00FB6F012B13DDFB6F013B9B00B0333B44E5
:1006EC0053F89C2CFB6F9B00B0333B4453F89C3C61
:1006FC001344DA0F13445B10C7F8843007E0FB6F28
:10070C009B00B0333B4453F89C3CC7F88430D7F87B
:10071C008430022B11DDD7F88430B72B0DDC0F4A57
:10072C00D7F8843013441B78BB673B68BA6F1A60E8
:10073C00D7F8B83001221A7006E03B68084A1A60F4
:10074C00D7F8B83000221A70064B01221A70B03755
:10075C00BD4680BD30000020C0010020305F000885
:10076C0019FCFFFF0000002080B586B002AFF860D6
:10077C00B9607A603B60BB6900933B687A68B96882
:10078C00F86800F012F8FB697A68B968F86800F04C
:10079C007FF8BB681A683B6A9A42A8BF1A46BB68C6
:1007AC001A6000BF1037BD4680BD80B487B000AF63
:1007BC00F860B9607A603B6001237B61BB68002202
:1007CC001A605AE07B699B007A6813441B683A6A8A
:1007DC009A424FDA7B699B007A6813441A687B69EA
:1007EC0003F18043013B9B0079680B441B689A42E0
:1007FC0040DD01233B6102E03B6901333B617A69D7
:10080C003B6913443A689A420DDD7B699B007A6818
:10081C0013441A6879693B690B449B0079680B4453
:10082C001B689A42E8D07B699B007A6813441A686B
:10083C0079693B690B449B0079680B441B689A42AD
:10084C0013DDBB681B680E2B0FDCBB681B68591CC7
:10085C00BA6811609B00FA6813447A691A603B69A4
:10086C0001337A6913447B6103E07A693B69134471
:10087C007B6102E07B6901337B613B68013B7A69F8
:10088C009A429FDB00BF00BF1C37BD4680BC70473F
:10089C0080B588B000AFF860B9607A603B60BB6827
:1008AC001B681A46F968786800F094F84FF0FF332B
:1008BC00FB613EE0BB681B687B61FB695A1CBB6833
:1008CC001A60FB690133BB612CE0BB699B00FA68C1
:1008DC0013441A68FB69B3F1FF3F05D0FB699B0019
:1008EC00F9680B441B6801E04FF0FF33D31A3B61EE
:1008FC003A693B689A4204DC3B685B423A699A422B
:10090C000DDABB699B00FA681A44BB681B68581C5B
:10091C00B96808609B00F9680B4412681A60BB69DF
:10092C000133BB61BA697B699A42CEDBFB69013347
:10093C00FB61BB681B68FA699A42BBDBBB681B682E
:10094C001946F86800F004F800BF2037BD4680BD9A
:10095C0080B487B000AF7860396001237B612FE0F1
:10096C007B699B007A6813441B68FB607B693B6165
:10097C000FE03B6903F18043013B9B007A681A440A
:10098C003B699B0079680B4412681A603B69013B18
:10099C003B613B69002B0ADD3B6903F18043013B62
:1009AC009B007A6813441B68FA689A42E1DB3B6946
:1009BC009B007A681344FA681A607B6901337B6187
:1009CC007A693B689A42CBDB00BF00BF1C37BD463F
:1009DC0080BC704780B489B000AFF860B9607A60B1
:1009EC000123FB6137E0FB699B00BA6813441B6869
:1009FC007B61FB69BB610FE0BB6903F18043013B89
:100A0C009B00BA681A44BB699B00B9680B44126816
:100A1C001A60BB69013BBB61BB69002B12DD7B69B2
:100A2C009B00FA6813441A68BB6903F18043013BCD
:100A3C009B00B9680B441B689B00F9680B441B684E
:100A4C009A42D9DCBB699B00BA6813447A691A6074
:100A5C00FB690133FB61FA697B689A42C3DB00BF17
:100A6C0000BF2437BD4680BC7047000080B400AF87
:100A7C00024B1B681846BD4680BC704754030020CF
:100A8C0080B400AF054B00221A60054B1B68002296
:100A9C005A6200BFBD4680BC704700BF54030020A3
:100AAC006C04002080B500AF0B4B1B78002B05D0DD
:100ABC00FFF7E6FF084B01221A700CE0074803F021
:100ACC004BFD074803F048FD064803F045FD024B7B
:100ADC0001221A7000BF80BD50030020FC040020CE
:100AEC006C0400204405002080B500AF094B0022A7
:100AFC001A70094803F009FD084803F006FD084880
:100B0C0003F003FD054B1B6800225A62FFF7B8FF88
:100B1C0000BF80BD500300206C040020FC040020AA
:100B2C004405002080B582B000AF78607B681B68FC
:100B3C00124A934211D1124B1B6800225A62114B7C
:100B4C001B6801330F4A13600E4B1B684EF65F2275
:100B5C00934202D90B4B00221A607B681B680A4A2D
:100B6C00934207D10821094801F067FC084B1B6828
:100B7C0000225A6200BF0837BD4680BD002C0140E0
:100B8C006C0400205403002000080040000C0140BD
:100B9C004405002080B500AF0B4B00221A700B4BA4
:100BAC001B78AA2B02D0FF2B03D00AE0FFF77AFFA9
:100BBC0007E0FFF799FF00220821054801F025FC0A
:100BCC0000BF00BF80BD00BF65030020580300209C
:100BDC00000C014080B582B000AF7860094B012257
:100BEC001A70094B1A78094B1A700821084801F041
:100BFC0024FC01220449074804F02FFC00BF0837ED
:100C0C00BD4680BD65030020580300205C03002016
:100C1C00000C01408C05002080B500AF0122054975
:100C2C00054804F01AFC01220821044801F0EDFBF0
:100C3C0000BF80BD580300208C050020000C014033
:100C4C0080B584B000AF7860FFF710FFF8600F4BF1
:100C5C0003221A70FB68DAB20C4B5A70FB681B0A41
:100C6C00DAB20A4B9A707B68DAB2084BDA707B689E
:100C7C001B0ADAB2054B1A710423052203490448F6
:100C8C0004F059FB00BF1037BD4680BD6003002047
:100C9C008C05002080B586B004AF00F0FBFF00F09F
:100CAC0075F800F0E3FA00F01BF900F0B5FA00F06B
:100CBC00E1F800F015FA00F0AFF800F05FFA00F080
:100CCC0091F900F03FF9FFF7A7FF244B1B78002B9D
:100CDC0006D0FFF75FFF224800F0C7FF0346FB7109
:100CEC00204B1B78002BF0D01F4B1B6800225A6244
:100CFC001C4B00221A701A4800F0DCFD184800F05A
:100D0C008DFF0346002BE0D0184A1949144800F017
:100D1C00C1FE184B1B78002BD7D0174B1968174BFB
:100D2C000293174B0193174B0093174B0F4A104824
:100D3C00FFF706FA134B93F90030002BC5D0124B7A
:100D4C001B68642BC1DC104B1B68452BBDDD0E4BA7
:100D5C001B681846FFF774FFB7E700BF6503002058
:100D6C00F4080020F0080020FC040020600700209C
:100D7C00D00500200000002004000020450F0020BA
:100D8C004C0F0020440F0020480F002080B590B07D
:100D9C0000AF07F1180328220021184605F0A6F829
:100DAC003B1D00221A605A609A60DA601A610123B6
:100DBC00BB614FF48033FB6100233B620123BB62B8
:100DCC0002237B634FF48033BB634FF4E013FB636C
:100DDC0007F11803184602F02FFB0346002B01D035
:100DEC0000F0BAFA0F237B600223BB600023FB6088
:100DFC004FF480633B6100237B613B1D022118464D
:100E0C0002F09CFD0346002B01D000F0A5FA00BFB8
:100E1C004037BD4680BD000080B500AF124B134A71
:100E2C001A60114B124A5A600F4B00229A600E4BFB
:100E3C000022DA600C4B4FF480421A610A4B0022FC
:100E4C005A61094B00229A61074B0022DA61064B6A
:100E5C0000221A62044801F021FB0346002B01D04A
:100E6C0000F07AFA00BF80BD6803002000540040F7
:100E7C00A086010080B500AF174B184A1A60164BBC
:100E8C004FF482725A60144B00229A60124B00226B
:100E9C00DA60114B00221A610F4B00225A610E4B83
:100EAC004FF400729A610C4B2822DA610A4B002233
:100EBC001A62094B00225A62074B00229A62064BB7
:100ECC000A22DA62044802F0D1FE0346002B01D05C
:100EDC0000F042FA00BF80BDBC030020003001408E
:100EEC0080B500AF154B164A1A60144B00225A609D
:100EFC00124B00229A60114B0022DA600F4B002239
:100F0C001A610E4B00225A610C4B4FF400729A611D
:100F1C000A4B00221A62094B00225A62074B00222C
:100F2C009A62064B0A22DA62044802F09FFE0346DC
:100F3C00002B01D000F010FA00BF80BD140400207B
:100F4C000038004080B586B000AF07F108030022DE
:100F5C001A605A609A60DA603B4600221A605A6046
:100F6C001E4B1F4A1A601D4B4FF4E1525A601B4B2B
:100F7C0000229A60194B0A22DA60184B00221A617F
:100F8C00164B00225A61154B00229A61134803F04C
:100F9C006DFA0346002B01D000F0DEF94FF48053BC
:100FAC00BB6007F1080319460C4803F09FFD03468C
:100FBC00002B01D000F0D0F900233B6000237B60B4
:100FCC003B461946054804F0F9F80346002B01D0BE
:100FDC0000F0C2F900BF1837BD4680BD6C0400207C
:100FEC00002C014080B58EB000AF07F12803002221
:100FFC001A605A609A60DA6007F1200300221A60C6
:10100C005A603B1D00221A605A609A60DA601A61BD
:10101C005A619A61314B4FF080421A602F4B482233
:10102C005A602E4B00229A602C4B40F2F512DA607B
:10103C002A4B00221A61294B00229A61274803F09F
:10104C0015FA0346002B01D000F086F94FF48053BB
:10105C00BB6207F128031946204803F047FD0346FD
:10106C00002B01D000F078F91C4803F0C7FA0346B6
:10107C00002B01D000F070F90821184803F016FB82
:10108C000346002B01D000F067F900233B620023DC
:10109C007B6207F120031946104804F08FF80346D1
:1010AC00002B01D000F058F960237B600123BB605A
:1010BC000223FB6000237B613B1D0022194607487D
:1010CC0003F056FC0346002B01D000F045F9034811
:1010DC0000F0B6FA00BF3837BD4680BDB40400201E
:1010EC0080B586B000AF07F1080300221A605A6081
:1010FC009A60DA603B4600221A605A601D4B1E4A09
:10110C001A601C4B4FF434725A601A4B00229A60CE
:10111C00184B4FF47A62DA60164B00221A61154BA9
:10112C0000229A61134803F0A1F90346002B01D069
:10113C0000F012F94FF48053BB6007F10803194615
:10114C000C4803F0D3FC0346002B01D000F004F94B
:10115C0000233B6000237B603B461946054804F0A6
:10116C002DF80346002B01D000F0F6F800BF18371D
:10117C00BD4680BDFC0400200004004080B586B054
:10118C0000AF07F1080300221A605A609A60DA6017
:10119C003B4600221A605A601D4B1E4A1A601C4BBB
:1011AC004FF6FF725A601A4B00229A60184B40F2AD
:1011BC00E732DA60164B00221A61154B00229A6155
:1011CC00134803F053F90346002B01D000F0C4F888
:1011DC004FF48053BB6007F1080319460C4803F029
:1011EC0085FC0346002B01D000F0B6F800233B60D1
:1011FC0000237B603B461946054803F0DFFF03469E
:10120C00002B01D000F0A8F800BF1837BD4680BDF8
:10121C00440500200008004080B500AF104B114A77
:10122C001A600F4B104A5A600D4B00229A600C4BFF
:10123C000022DA600A4B00221A61094B0C225A6117
:10124C00074B00229A61064B0022DA61044804F035
:10125C0025F80346002B01D000F07EF800BF80BDBE
:10126C008C0500200038014090D0030080B588B078
:10127C0000AF07F1100300221A605A609A60DA601E
:10128C00314B9B69304A43F0200393612E4B9B6991
:10129C0003F02003FB60FB682B4B9B692A4A43F04D
:1012AC0004039361284B9B6903F00403BB60BB6888
:1012BC00254B9B69244A43F008039361224B9B699D
:1012CC0003F008037B607B68002218211F4801F0A3
:1012DC009CF8002208211E4801F097F818233B6166
:1012EC0001237B610023BB610223FB6107F1100327
:1012FC001946164800F0EEFE4FF480533B61154B37
:10130C007B610023BB6107F110031946104800F004
:10131C00E1FE08233B6101237B610023BB610223B7
:10132C00FB6107F110031946094800F0D3FE0022B7
:10133C000121282000F0E7FD282000F000FE00BF6E
:10134C002037BD4680BD00BF0010024000080140A0
:10135C00000C01400000311080B400AF72B600BF29
:10136C00FEE7000080B485B000AF154B9B69144AB2
:10137C0043F001039361124B9B6903F00103BB60C3
:10138C00BB680F4BDB690E4A43F08053D3610C4BA7
:10139C00DB6903F080537B607B680A4B5B68FB6006
:1013AC00FB6823F0E063FB60FB6843F00073FB60B9
:1013BC00044AFB68536000BF1437BD4680BC7047BD
:1013CC00001002400000014080B588B000AF78608A
:1013DC0007F1100300221A605A609A60DA607B6889
:1013EC001B68154A934223D1144B9B69134A43F053
:1013FC0008039361114B9B6903F00803FB60FB68C6
:10140C00C0233B6112237B610323FB6107F11003B3
:10141C0019460B4800F05EFE084BDB69074A43F4A3
:10142C000013D361054BDB6903F40013BB60BB688D
:10143C0000BF2037BD4680BD005400400010024064
:10144C00000C014080B58AB000AF786007F118033A
:10145C0000221A605A609A60DA607B681B683B4A0B
:10146C00934230D13A4B9B69394A43F48053936190
:10147C00374B9B6903F480537B617B69344B9B69CD
:10148C00334A43F004039361314B9B6903F004032B
:10149C003B613B69A023BB610223FB6103237B629D
:1014AC0007F1180319462B4800F014FE4023BB61CA
:1014BC000023FB6100233B6207F118031946254802
:1014CC0000F008FE3EE07B681B68234A934239D14A
:1014DC001F4BDB691E4A43F48043D3611C4BDB6911
:1014EC0003F48043FB60FB68194B9B69184A43F07B
:1014FC0008039361164B9B6903F00803BB60BB6840
:10150C004FF42043BB610023FB6100233B6207F1D6
:10151C0018031946114800F0DDFD4FF48043BB6100
:10152C000223FB6103237B6207F1180319460B4866
:10153C0000F0D0FD00220121242000F0E4FC242046
:10154C0000F0FDFC00BF2837BD4680BD00300140D7
:10155C00001002400008014000380040000C01401F
:10156C0080B586B000AF78607B681B68304A9342C8
:10157C0014D1304B9B692F4A43F4006393612D4B7C
:10158C009B6903F400637B617B69002203211920B2
:10159C0000F0B9FC192000F0D2FC44E07B681B6819
:1015AC00B3F1804F0CD1234BDB69224A43F001038A
:1015BC00D361204BDB6903F001033B613B6932E0F3
:1015CC007B681B681C4A934214D11A4BDB69194A7D
:1015DC0043F00203D361174BDB6903F00203FB609A
:1015EC00FB68002203211D2000F08DFC1D2000F063
:1015FC00A6FC18E07B681B68104A934213D10D4B74
:10160C00DB690C4A43F00403D3610A4BDB6903F03A
:10161C000403BB60BB68002202211E2000F073FC97
:10162C001E2000F08CFC00BF1837BD4680BD00BFEB
:10163C00002C014000100240000400400008004053
:10164C0080B588B000AF786007F1100300221A60F3
:10165C005A609A60DA607B681B68B3F1804F17D1CF
:10166C000D4B9B690C4A43F0040393610A4B9B6935
:10167C0003F00403FB60FB6801233B6102237B61E5
:10168C000223FB6107F110031946044800F022FD08
:10169C0000BF2037BD4680BD00100240000801404D
:1016AC0080B588B000AF786007F1100300221A6093
:1016BC005A609A60DA607B681B68204A934239D181
:1016CC001F4B9B691E4A43F4804393611C4B9B69DF
:1016DC0003F48043FB60FB68194B9B69184A43F089
:1016EC0004039361164B9B6903F00403BB60BB6856
:1016FC004FF400733B6102237B610323FB6107F111
:10170C00100319460F4800F0E5FC4FF480633B6171
:10171C0000237B610023BB6107F1100319460948C4
:10172C0000F0D8FC00220221252000F0ECFB252043
:10173C0000F005FC00BF2037BD4680BD00380140DD
:10174C00001002400008014080B400AFFEE780B4F6
:10175C0000AFFEE780B400AFFEE780B400AFFEE759
:10176C0080B400AFFEE780B400AF00BFBD4680BCC4
:10177C00704780B400AF00BFBD4680BC704780B4DA
:10178C0000AF00BFBD4680BC704780B500AF00F015
:10179C00C7FA00BF80BD000080B500AF024802F060
:1017AC00DEFF00BF80BD00BF6C04002080B500AF21
:1017BC00034B01221A70034802F0D1FF00BF80BD19
:1017CC00F0080020FC04002080B500AF024802F0B5
:1017DC00C6FF00BF80BD00BF4405002080B500AF30
:1017EC00024802F05BFB00BF80BD00BF1404002068
:1017FC0080B500AF024803F061FE00BF80BD00BFA2
:10180C008C05002080B500AF4FF4805000F02EFE08
:10181C0000BF80BD80B400AF00BFBD4680BC704728
:10182C000C480D490D4A002302E0D458C45004332F
:10183C00C4188C42F9D30A4A0A4C002301E0136005
:10184C000432A242FBD3FFF7E5FF04F01DFBFFF7C8
:10185C0021FA7047000000201400002008600008E6
:10186C00140000209C140020FEE780B588B002AF65
:10187C00F8607A601A460B46FB7213463B81FB7A82
:10188C00FB75FB68186807F117024FF47A73009325
:10189C000123AE2100F046FFFB6818683B894FF42A
:1018AC007A7200927A68AE2101F03AF800BF1837CC
:1018BC00BD4680BD80B584B000AF78600023BB818D
:1018CC0007F10C02022300217868FFF7CEFF3B7B67
:1018DC005B09DBB203F00103002B04D0174B1B6830
:1018EC000133164A13603B7BDB09DBB203F00103C7
:1018FC00002B07D0786800F027F8114B1B680133D8
:10190C000F4A13607B7B5B08DBB203F00103002BF7
:10191C000CD007F10A0207F10B031946786800F0A6
:10192C008EF9084B1B680133064A13607B68002252
:10193C0083F84A2600BF1037BD4680BD580F0020E3
:10194C00500F0020540F002080B588B000AF786095
:10195C000023FB740023BB7407F113020123042141
:10196C007868FFF782FF07F11202012306217868DD
:10197C00FFF77BFFFA7CBB7CD31ADBB2FB7797F9C2
:10198C001F30002B03DCFB7F2033DBB2FB77002303
:10199C00BB7765E007F10C02062307217868FFF797
:1019AC0064FF3B7B1B041A467B7B1B021343BA7BF5
:1019BC001343C3F31103BB61FB7B1B041A463B7C33
:1019CC001B0213437A7C1343C3F311037B617B68C3
:1019DC00B3F844367A689B0013447A695A607B6882
:1019EC00B3F844367A68C8339B001344BA695A601A
:1019FC007B68B3F844360133254A82FB03129111FC
:101A0C00DA178A1AC82101FB02F29A1A92B27B6881
:101A1C00A3F844267B68B3F84636C72B08D87B68F6
:101A2C00B3F8463601339AB27B68A3F8462611E028
:101A3C007B68B3F848360133154A82FB03129111C7
:101A4C00DA178A1AC82101FB02F29A1A92B27B6841
:101A5C00A3F8482697F91E30DBB20133DBB2BB7713
:101A6C0097F91E2097F91F309A4293DB7B68B3F8E5
:101A7C004636182B08D97B6893F84B36002B03D1CC
:101A8C007B68012283F84B2600BF2037BD4680BD02
:101A9C001F85EB5180B489B000AFF860B9607A60F3
:101AAC00FB6893F84B36002B00F0AE806423FB747C
:101ABC00FB68B3F84836FB83FB6893F84C3683F02D
:101ACC000103DBB2002B3ED0524B00221A6029E0FE
:101ADC00FB8B504A12689200B9680A44F9689B0063
:101AEC000B445B681360FB8B4A4A1268920079685E
:101AFC000A44F968C8339B000B445B681360FB8B8A
:101B0C000133454A82FB03129111DA178A1AC82154
:101B1C0001FB02F29A1A1346FB833E4B1B680133FE
:101B2C003C4A1360FA7C3B4B1B689A42D0DC394B25
:101B3C001B68622B52DDFB68012283F84C26354B67
:101B4C0000221A604AE00023BB6118E0BB6919331C
:101B5C009B00BA681A44BB699B00B9680B441268B5
:101B6C001A60BB6919339B007A681A44BB699B00E5
:101B7C0079680B4412681A60BB690133BB61BB699D
:101B8C004A2BE3DD4B237B6125E0FB8B7A699200CA
:101B9C00B9680A44F9689B000B445B681360FB8BC3
:101BAC007A69920079680A44F968C8339B000B443F
:101BBC005B681360FB8B0133174A82FB0312911194
:101BCC00DA178A1AC82101FB02F29A1A1346FB8310
:101BDC007B6901337B617B69632BD6DDFB68FA8BF8
:101BEC00A3F84826FB68B3F84636193B9AB2FB6853
:101BFC00A3F84626FB68B3F84636182B05D8FB68C5
:101C0C00002283F84B2600E000BF2437BD4680BC81
:101C1C00704700BF5C0F00201F85EB5180B483B070
:101C2C0000AF78607B6893F84B36012B01D1012310
:101C3C0000E0002318460C37BD4680BC704780B5C9
:101C4C0084B000AFF860B9607A600123BA681F21D4
:101C5C00F868FFF70AFE01237A682021F868FFF77D
:101C6C0004FE00BF1037BD4680BD80B584B000AF08
:101C7C00786007F10F020123FF217868FFF7F5FD6B
:101C8C00FB7B152B01D1012300E0002318461037F4
:101C9C00BD4680BD80B500AF084B1B68074A43F0BA
:101CAC0010031360032000F023F9002000F008F863
:101CBC00FFF758FB0023184680BD00BF00200240F0
:101CCC0080B582B000AF7860124B1A68124B1B784B
:101CDC0019464FF47A73B3FBF1F3B2FBF3F31846E6
:101CEC0000F03BF90346002B01D001230EE07B688A
:101CFC000F2B0AD8002279684FF0FF3000F003F95F
:101D0C00064A7B681360002300E00123184608375D
:101D1C00BD4680BD08000020100000200C000020F3
:101D2C0080B400AF054B1B781A46054B1B68134457
:101D3C00034A136000BFBD4680BC704710000020F2
:101D4C00600F002080B400AF024B1B681846BD46E4
:101D5C0080BC7047600F002080B485B000AF786005
:101D6C007B6803F00703FB600C4BDB68BB60BA6855
:101D7C004FF6FF031340BB60FB681A02BB681343AA
:101D8C0043F0BF6343F40033BB60044ABB68D360C9
:101D9C0000BF1437BD4680BC704700BF00ED00E0AB
:101DAC0080B400AF044BDB681B0A03F00703184632
:101DBC00BD4680BC704700BF00ED00E080B483B02E
:101DCC0000AF0346FB7197F90730002B0BDBFB7957
:101DDC0003F01F02064997F907305B09012000FA4E
:101DEC0002F241F8232000BF0C37BD4680BC70477F
:101DFC0000E100E080B483B000AF03463960FB71B2
:101E0C0097F90730002B0ADB3B68DAB20C4997F9DB
:101E1C0007301201D2B20B4483F800230AE03B686E
:101E2C00DAB20849FB7903F00F03043B1201D2B27A
:101E3C000B441A7600BF0C37BD4680BC704700BF00
:101E4C0000E100E000ED00E080B489B000AFF86084
:101E5C00B9607A60FB6803F00703FB61FB69C3F1AF
:101E6C000703042B28BF0423BB61FB690433062B37
:101E7C0002D9FB69033B00E000237B614FF0FF328A
:101E8C00BB6902FA03F3DA43BB681A407B699A40D8
:101E9C004FF0FF317B6901FA03F3D9437B680B40A8
:101EAC00134318462437BD4680BC704780B582B0BA
:101EBC0000AF78607B68013BB3F1807F01D30123D5
:101ECC000FE00A4A7B68013B53600F214FF0FF3053
:101EDC00FFF790FF054B00229A60044B07221A6013
:101EEC00002318460837BD4680BD00BF10E000E057
:101EFC0080B582B000AF78607868FFF72DFF00BF27
:101F0C000837BD4680BD80B586B000AF0346B960CA
:101F1C007A60FB7300237B61FFF742FF78617A687C
:101F2C00B9687869FFF790FF024697F90F301146B0
:101F3C001846FFF75FFF00BF1837BD4680BD80B560
:101F4C0082B000AF0346FB7197F907301846FFF7D4
:101F5C0035FF00BF0837BD4680BD80B582B000AFED
:101F6C0078607868FFF7A2FF034618460837BD462D
:101F7C0080BD80B485B000AF78600023FB737B68B4
:101F8C0093F82130022B08D07B6804229A637B687B
:101F9C00002283F82020012320E07B681B681A684C
:101FAC007B681B6822F00E021A607B681B681A683B
:101FBC007B681B6822F001021A607B681A6C7B68D4
:101FCC00DB6B012101FA02F25A607B68012283F873
:101FDC0021207B68002283F82020FB7B18461437D5
:101FEC00BD4680BC7047000080B584B000AF7860FF
:101FFC000023FB737B6893F82130022B05D07B68A0
:10200C0004229A630123FB7351E07B681B681A68F6
:10201C007B681B6822F00E021A607B681B681A68CA
:10202C007B681B6822F001021A607B681B68224ADD
:10203C00934229D07B681B68204A934222D07B684C
:10204C001B681F4A93421AD07B681B681D4A934237
:10205C0012D07B681B681C4A93420AD07B681B68B1
:10206C001A4A934202D14FF480130EE04FF0807362
:10207C000BE04FF4803308E04FF4805305E04FF44D
:10208C00807302E0102300E00123114A53607B6847
:10209C00012283F821207B68002283F820207B68B2
:1020AC005B6B002B03D07B685B6B78689847FB7B82
:1020BC0018461037BD4680BD080002401C00024087
:1020CC003000024044000240580002406C000240C4
:1020DC000000024080B48BB000AF78603960002300
:1020EC007B6200233B6269E101227B6A02FA03F303
:1020FC00FB613B681B68FA691340BB61BA69FB69F9
:10210C009A4240F058813B685B689A4A93425ED091
:10211C00984A934275D8984A934258D0964A93421B
:10212C006FD8964A934252D0944A934269D8944AB3
:10213C0093424CD0924A934263D8924A934246D0EF
:10214C00904A93425DD8122B2AD8122B59D801A24F
:10215C0052F823F0DB210008B5210008C721000844
:10216C00092200080F2200080F2200080F22000885
:10217C000F2200080F2200080F2200080F2200086F
:10218C000F2200080F2200080F2200080F2200085F
:10219C000F2200080F220008BD210008D1210008E1
:1021AC00794A934213D02CE03B68DB683B6229E010
:1021BC003B68DB6804333B6224E03B68DB68083334
:1021CC003B621FE03B68DB680C333B621AE03B6808
:1021DC009B68002B02D104233B6213E03B689B6895
:1021EC00012B05D108233B627B68FA691A6109E06F
:1021FC0008233B627B68FA695A6103E000233B6267
:10220C0000E000BFBB69FF2B01D87B6801E07B6855
:10221C0004337B61BB69FF2B02D87B6A9B0002E015
:10222C007B6A083B9B003B617B691A680F213B6909
:10223C0001FA03F3DB431A40396A3B6901FA03F3F1
:10224C001A437B691A603B685B6803F08053002B70
:10225C0000F0B1804D4B9B694C4A43F001039361F4
:10226C004A4B9B6903F00103BB60BB68484A7B6A1D
:10227C009B08023352F82330FB607B6A03F00303A4
:10228C009B000F2202FA03F3DB43FA681340FB6056
:10229C007B68404A934213D07B683F4A93420DD0EF
:1022AC007B683E4A934207D07B683D4A934201D1FA
:1022BC00032306E0042304E0022302E0012300E0F0
:1022CC0000237A6A02F0030292009340FA681343E7
:1022DC00FB602F497B6A9B080233FA6841F8232084
:1022EC003B685B6803F48033002B06D02D4B1A68D7
:1022FC002C49BB6913430B6006E02A4B1A68BB6977
:10230C00DB43284913400B603B685B6803F40033E4
:10231C00002B06D0234B5A682249BB6913434B60F0
:10232C0006E0204B5A68BB69DB431E4913404B60E7
:10233C003B685B6803F48013002B06D0194B9A683A
:10234C001849BB6913438B6006E0164B9A68BB694E
:10235C00DB43144913408B603B685B6803F4001348
:10236C00002B21D00F4BDA680E49BB691343CB60AD
:10237C0021E000BF000032100000311000002210DC
:10238C00000021100000121000001110001002407B
:10239C000000014000080140000C01400010014009
:1023AC0000140140000401400B4BDA68BB69DB43AD
:1023BC0009491340CB607B6A01337B623B681A6826
:1023CC007B6A22FA03F3002B7FF48EAE00BF00BFB2
:1023DC002C37BD4680BC70470004014080B485B0EA
:1023EC0000AF78600B467B807B689A687B881340D3
:1023FC00002B02D00123FB7301E00023FB73FB7B5A
:10240C0018461437BD4680BC704780B483B000AF0B
:10241C0078600B467B8013467B707B78002B03D057
:10242C007A887B681A6103E07B881A047B681A61DE
:10243C0000BF0C37BD4680BC704780B485B000AF80
:10244C0078600B467B807B68DB68FB607A88FB6876
:10245C0013401A04FB68D9437B880B401A437B68F2
:10246C001A6100BF1437BD4680BC704780B582B07E
:10247C0000AF0346FB80084B5A69FB881340002BC6
:10248C0006D0054AFB885361FB88184603F03EFCD6
:10249C0000BF0837BD4680BD0004014080B584B044
:1024AC0000AF78607B68002B01D101232BE17B68A6
:1024BC0093F83D30DBB2002B06D17B68002283F809
:1024CC003C207868FEF780FF7B68242283F83D204F
:1024DC007B681B681A687B681B6822F001021A6013
:1024EC007B681B681A687B681B6842F400421A60A0
:1024FC007B681B681A687B681B6822F400421A60B0
:10250C0001F06EFBF8607B685B68814A934207D8E8
:10251C00FB68804A934294BF01230023DBB206E0A0
:10252C00FB687D4A934294BF01230023DBB2002B4E
:10253C0001D00123E7E0FB68784AA2FB03239B0C44
:10254C00BB607B681B685B6823F03F017B681B6882
:10255C00BA680A435A607B681B681B6A23F03F0108
:10256C007B685B686A4A934202D8BB68013309E016
:10257C00BB684FF4967202FB03F3694AA2FB032378
:10258C009B0901337A6812680B4313627B681B68E2
:10259C00DB6923F44F4222F0FF027B685B685C49E5
:1025AC008B4219D8FB68591E7B685B685B00B1FBDA
:1025BC00F3F3591C40F6FC730B40002B0AD0FB685C
:1025CC00591E7B685B685B00B1FBF3F30133C3F30B
:1025DC000B0351E004234FE07B689B68002B11D167
:1025EC00FB68581E7B6859680B465B000B44B0FBBC
:1025FC00F3F30133C3F30B03002B0CBF01230023B4
:10260C00DBB212E0FB68581E7B6859680B469B00D6
:10261C000B4499000B44B0FBF3F30133C3F30B03EE
:10262C00002B0CBF01230023DBB2002B01D00123B4
:10263C0022E07B689B68002B0ED1FB68581E7B68E0
:10264C0059680B465B000B44B0FBF3F30133C3F347
:10265C000B0343F400430FE0FB68581E7B6859687A
:10266C000B469B000B4499000B44B0FBF3F3013376
:10267C00C3F30B0343F44043796809681343CB61FC
:10268C007B681B681B6823F0C0017B68DA697B6878
:10269C001B6A1A437B681B680A431A607B681B68B9
:1026AC009B6823F4034323F0FF037A6811697A686B
:1026BC00D26811437A6812680B4393607B681B687D
:1026CC00DB6823F0FF017B685A697B689B691A43BE
:1026DC007B681B680A43DA607B681B681A687B6836
:1026EC001B6842F001021A607B6800221A647B6846
:1026FC00202283F83D207B6800221A637B6800222D
:10270C0083F83E20002318461037BD4680BD00BF1D
:10271C00A08601007F841E00FF083D0083DE1B4362
:10272C00D34D621080B588B002AFF8607A601A465B
:10273C000B467B8113463B81FFF704FB7861FB68FA
:10274C0093F83D30DBB2202B40F0E0807B690093A6
:10275C00192301227049F86800F092FC0346002B03
:10276C0001D00223D3E0FB6893F83C30012B01D15C
:10277C000223CCE0FB68012283F83C20FB681B6839
:10278C001B6803F00103012B07D0FB681B681A6858
:10279C00FB681B6842F001021A60FB681B681A6830
:1027AC00FB681B6822F400621A60FB68212283F824
:1027BC003D20FB68102283F83E20FB6800221A643F
:1027CC00FB687A685A62FB683A895A85FB685B8DAC
:1027DC009AB2FB681A85FB68504ADA6279897B6980
:1027EC003A6AF86800F0FCFA0346002B01D001238A
:1027FC008DE000233B61FB681B685B693B61FB68F8
:10280C001B689B693B613B6966E07A69396AF868C9
:10281C0000F00CFD0346002B0DD0FB681B6C042B49
:10282C0007D1FB681B681A68FB681B6842F40072CE
:10283C001A6001236BE0FB685B6A1A78FB681B6803
:10284C001A61FB685B6A5A1CFB685A62FB685B8DF9
:10285C009BB2013B9AB2FB685A85FB681B8D013B0E
:10286C009AB2FB681A85FB681B685B6903F004036A
:10287C00042B1BD1FB681B8D002B17D0FB685B6AEC
:10288C001A78FB681B681A61FB685B6A5A1CFB6848
:10289C005A62FB685B8D9BB2013B9AB2FB685A850E
:1028AC00FB681B8D013B9AB2FB681A857A69396A01
:1028BC00F86800F0FCFC0346002B0DD0FB681B6C89
:1028CC00042B07D1FB681B681A68FB681B6842F471
:1028DC0000721A6001231AE0FB681B8D002B94D147
:1028EC00FB681B681A68FB681B6842F400721A606C
:1028FC00FB68202283F83D20FB68002283F83E20F1
:10290C00FB68002283F83C20002300E002231846D9
:10291C001837BD4680BD00BF020010000000FFFF4D
:10292C0080B58CB002AFF8607A601A460B467B819A
:10293C0013463B8100233B62FFF704FA7862FB6885
:10294C0093F83D30DBB2202B40F03F827B6A009342
:10295C00192301227F49F86800F092FB0346002BF3
:10296C0001D0022332E2FB6893F83C30012B01D1F9
:10297C0002232BE2FB68012283F83C20FB681B68D6
:10298C001B6803F00103012B07D0FB681B681A6856
:10299C00FB681B6842F001021A60FB681B681A682E
:1029AC00FB681B6822F400621A60FB68222283F821
:1029BC003D20FB68102283F83E20FB6800221A643D
:1029CC00FB687A685A62FB683A895A85FB685B8DAA
:1029DC009AB2FB681A85FB685F4ADA6279897B6A6E
:1029EC003A6BF86800F07EFA0346002B01D0012305
:1029FC00ECE1FB681B8D002B13D10023FB61FB6802
:102A0C001B685B69FB61FB681B689B69FB61FB696D
:102A1C00FB681B681A68FB681B6842F400721A603A
:102A2C00C0E1FB681B8D012B1ED1FB681B681A686B
:102A3C00FB681B6822F480621A6072B600BF002328
:102A4C00BB61FB681B685B69BB61FB681B689B69AE
:102A5C00BB61BB69FB681B681A68FB681B6842F4A6
:102A6C0000721A6062B635E0FB681B8D022B1ED11A
:102A7C00FB681B681A68FB681B6842F400621A60EA
:102A8C0072B600BF00237B61FB681B685B697B61CE
:102A9C00FB681B689B697B617B69FB681B681A6818
:102AAC00FB681B6822F480621A6062B612E0FB6855
:102ABC001B681A68FB681B6842F480621A6000236A
:102ACC003B61FB681B685B693B61FB681B689B692E
:102ADC003B613B6966E1FB681B8D032B00F21F8198
:102AEC00FB681B8D012B23D17A6A396BF86800F0D7
:102AFC001FFC0346002B01D0012367E1FB681B6818
:102B0C001A69FB685B6AD2B21A70FB685B6A5A1C62
:102B1C00FB685A62FB681B8D013B9AB2FB681A85F5
:102B2C00FB685B8D9BB2013B9AB2FB685A8539E11D
:102B3C00FB681B8D022B52D17B6A00933B6B0022EE
:102B4C000649F86800F09CFA0346002B08D00123D4
:102B5C003CE100BF020010000000FFFF0400010078
:102B6C0072B600BFFB681B681A68FB681B6842F4EE
:102B7C0000721A60FB681B681A69FB685B6AD2B248
:102B8C001A70FB685B6A5A1CFB685A62FB681B8DE7
:102B9C00013B9AB2FB681A85FB685B8D9BB2013BCB
:102BAC009AB2FB685A8562B600BFFB681B681A694B
:102BBC00FB685B6AD2B21A70FB685B6A5A1CFB68D2
:102BCC005A62FB681B8D013B9AB2FB681A85FB6845
:102BDC005B8D9BB2013B9AB2FB685A85E2E07B6A43
:102BEC0000933B6B00227B49F86800F049FA0346DE
:102BFC00002B01D00123E9E0FB681B681A68FB6815
:102C0C001B6822F480621A6072B600BFFB681B68F6
:102C1C001A69FB685B6AD2B21A70FB685B6A5A1C51
:102C2C00FB685A62FB681B8D013B9AB2FB681A85E4
:102C3C00FB685B8D9BB2013B9AB2FB685A85664B75
:102C4C001B68DB08654AA2FB03231A0A13469B0088
:102C5C001344DA00D31A3B623B6A013B3B623B6A8A
:102C6C00002B18D1FB6800221A63FB68202283F822
:102C7C003D20FB68002283F83E20FB681B6C43F070
:102C8C002002FB681A6462B600BFFB68002283F85E
:102C9C003C2001239AE0FB681B685B6903F004038A
:102CAC00042BD9D1FB681B681A68FB681B6842F4BB
:102CBC0000721A60FB681B681A69FB685B6AD2B207
:102CCC001A70FB685B6A5A1CFB685A62FB681B8DA6
:102CDC00013B9AB2FB681A85FB685B8D9BB2013B8A
:102CEC009AB2FB685A8562B600BFFB681B681A690A
:102CFC00FB685B6AD2B21A70FB685B6A5A1CFB6891
:102D0C005A62FB681B8D013B9AB2FB681A85FB6803
:102D1C005B8D9BB2013B9AB2FB685A8542E07A6AA2
:102D2C00396BF86800F004FB0346002B01D001233B
:102D3C004CE0FB681B681A69FB685B6AD2B21A70BC
:102D4C00FB685B6A5A1CFB685A62FB681B8D013B73
:102D5C009AB2FB681A85FB685B8D9BB2013B9AB2F9
:102D6C00FB685A85FB681B685B6903F00403042B42
:102D7C0018D1FB681B681A69FB685B6AD2B21A70BF
:102D8C00FB685B6A5A1CFB685A62FB681B8D013B33
:102D9C009AB2FB681A85FB685B8D9BB2013B9AB2B9
:102DAC00FB685A85FB681B8D002B7FF494AEFB6887
:102DBC00202283F83D20FB68002283F83E20FB682C
:102DCC00002283F83C20002300E002231846283719
:102DDC00BD4680BD040001000800002089B5F81430
:102DEC0080B588B002AFF8607A603B600B467B819F
:102DFC00FB68DB6A7B617B69082B06D07B69012B46
:102E0C0003D07B6913F5803F08D1FB681B681A68F7
:102E1C00FB681B6842F480721A600BE0FB681B6B4A
:102E2C00122B07D1FB681B681A68FB681B6842F4FD
:102E3C0080721A603B6800937B6800224FF001118E
:102E4C00F86800F01DF90346002B0DD0FB681B68D9
:102E5C001B6803F48073B3F5807F03D1FB684FF4D8
:102E6C0000721A64032335E0FB681B69B3F5804FCD
:102E7C0008D17B89DBB21A46FB681B6802F0FE02A4
:102E8C001A611BE07B89DB11DBB203F00603DBB2BA
:102E9C0063F00F03DAB2FB681B681A613B687A684F
:102EAC000E49F86800F043F90346002B01D00123CA
:102EBC0010E07B89DAB2FB681B681A613B687A68A0
:102ECC000749F86800F033F90346002B01D00123C1
:102EDC0000E0002318461837BD4680BD08000100ED
:102EEC000200010080B588B002AFF8607A603B60E8
:102EFC000B467B81FB68DB6A7B61FB681B681A688D
:102F0C00FB681B6842F480621A607B69082B06D050
:102F1C007B69012B03D07B6913F5803F08D1FB68DB
:102F2C001B681A68FB681B6842F480721A600BE01D
:102F3C00FB681B6B112B07D1FB681B681A68FB68BD
:102F4C001B6842F480721A603B6800937B68002215
:102F5C004FF00111F86800F093F80346002B0DD0E8
:102F6C00FB681B681B6803F48073B3F5807F03D187
:102F7C00FB684FF400721A64032379E0FB681B6949
:102F8C00B3F5804F08D17B89DBB243F00103DAB291
:102F9C00FB681B681A615FE07B89DB11DBB203F015
:102FAC000603DBB263F00F03DAB2FB681B681A612D
:102FBC003B687A683049F86800F0B9F80346002B92
:102FCC0001D0012354E07B89DAB2FB681B681A61DB
:102FDC003B687A682949F86800F0A9F80346002B89
:102FEC0001D0012344E000233B61FB681B685B6953
:102FFC003B61FB681B689B693B613B69FB681B6819
:10300C001A68FB681B6842F480721A603B68009374
:10301C007B6800224FF00111F86800F031F803468C
:10302C00002B0DD0FB681B681B6803F48073B3F591
:10303C00807F03D1FB684FF400721A64032317E0FE
:10304C007B89DB11DBB203F00603DBB263F00E030A
:10305C00DAB2FB681B681A613B687A680749F86842
:10306C0000F065F80346002B01D0012300E000239B
:10307C0018461837BD4680BD08000100020001004B
:10308C0080B584B000AFF860B9603B601346FB714B
:10309C0025E03B68B3F1FF3F21D0FEF753FE02461B
:1030AC00BB69D31A3A689A4202D33B68002B16D1FB
:1030BC00FB6800221A63FB68202283F83D20FB6822
:1030CC00002283F83E20FB681B6C43F02002FB6857
:1030DC001A64FB68002283F83C20012323E0BB68C0
:1030EC001B0CDBB2012B0DD1FB681B685B69DA434F
:1030FC00BB6813409BB2002B0CBF01230023DBB237
:10310C001A460CE0FB681B689B69DA43BB681340EA
:10311C009BB2002B0CBF01230023DBB21A46FB79B8
:10312C009A42B6D0002318461037BD4680BD80B5F4
:10313C0084B000AFF860B9607A603B6051E0FB6826
:10314C001B685B6903F48063B3F5806F23D1FB6864
:10315C001B681A68FB681B6842F400721A60FB68F3
:10316C001B686FF480625A61FB6800221A63FB686B
:10317C00202283F83D20FB68002283F83E20FB6868
:10318C001B6C43F00402FB681A64FB68002283F892
:10319C003C20012346E07B68B3F1FF3F21D0FEF7D2
:1031AC00D1FD02463B68D31A7A689A4202D37B68F7
:1031BC00002B16D1FB6800221A63FB68202283F8CF
:1031CC003D20FB68002283F83E20FB681B6C43F01B
:1031DC002002FB681A64FB68002283F83C20012360
:1031EC0020E0BB681B0CDBB2012B0CD1FB681B680D
:1031FC005B69DA43BB6813409BB2002B14BF0123FD
:10320C000023DBB20BE0FB681B689B69DA43BB68ED
:10321C0013409BB2002B14BF01230023DBB2002B05
:10322C008DD1002318461037BD4680BD80B584B0C3
:10323C0000AFF860B9607A602DE0F86800F0CEF865
:10324C000346002B01D001232DE0BB68B3F1FF3FF7
:10325C0021D0FEF777FD02467B68D31ABA689A42F2
:10326C0002D3BB68002B16D1FB6800221A63FB68E3
:10327C00202283F83D20FB68002283F83E20FB6867
:10328C001B6C43F02002FB681A64FB68002283F875
:10329C003C20012307E0FB681B685B6903F080039B
:1032AC00802BCAD1002318461037BD4680BD80B58F
:1032BC0084B000AFF860B9607A602DE0F86800F077
:1032CC008DF80346002B01D001232DE0BB68B3F130
:1032DC00FF3F21D0FEF736FD02467B68D31ABA6851
:1032EC009A4202D3BB68002B16D1FB6800221A63EA
:1032FC00FB68202283F83D20FB68002283F83E20E7
:10330C00FB681B6C43F02002FB681A64FB6800220C
:10331C0083F83C20012307E0FB681B685B6903F022
:10332C000403042BCAD1002318461037BD4680BDB8
:10333C0080B584B000AFF860B9607A6042E0FB6899
:10334C001B685B6903F01003102B19D1FB681B6819
:10335C006FF010025A61FB6800221A63FB6820228E
:10336C0083F83D20FB68002283F83E20FB681A6C32
:10337C00FB681A64FB68002283F83C20012329E0D7
:10338C00FEF7E0FC02467B68D31ABA689A4202D375
:10339C00BB68002B16D1FB6800221A63FB68202245
:1033AC0083F83D20FB68002283F83E20FB681B6CF1
:1033BC0043F02002FB681A64FB68002283F83C206F
:1033CC00012307E0FB681B685B6903F04003402B9B
:1033DC00B5D1002318461037BD4680BD80B483B0EC
:1033EC0000AF78607B681B685B6903F48063B3F59E
:1033FC00806F1BD17B681B686FF480625A617B689D
:10340C0000221A637B68202283F83D207B6800220F
:10341C0083F83E207B681B6C43F004027B681A64C3
:10342C007B68002283F83C20012300E0002318462F
:10343C000C37BD4680BC704780B586B000AF786055
:10344C007B68002B01D1012372E27B681B6803F0BF
:10345C000103002B00F08780924B5B6803F00C0398
:10346C00042B0CD08F4B5B6803F00C03082B12D190
:10347C008C4B5B6803F48033B3F5803F0BD1894BE5
:10348C001B6803F40033002B6CD07B685B68002B4B
:10349C0068D101234CE27B685B68B3F5803F06D1B1
:1034AC00804B1B687F4A43F4803313602EE07B68AB
:1034BC005B68002B0CD17B4B1B687A4A23F480335E
:1034CC001360784B1B68774A23F4802313601DE04C
:1034DC007B685B68B3F5A02F0CD1724B1B68714AEB
:1034EC0043F4802313606F4B1B686E4A43F48033A4
:1034FC0013600BE06B4B1B686A4A23F48033136038
:10350C00684B1B68674A23F4802313607B685B68F5
:10351C00002B13D0FEF716FC386108E0FEF712FC06
:10352C0002463B69D31A642B01D9032300E25D4B9D
:10353C001B6803F40033002BF0D014E0FEF702FC00
:10354C00386108E0FEF7FEFB02463B69D31A642B98
:10355C0001D90323ECE1534B1B6803F40033002B1C
:10356C00F0D100E000BF7B681B6803F00203002B66
:10357C0063D04C4B5B6803F00C03002B0BD0494B16
:10358C005B6803F00C03082B1CD1464B5B6803F4FF
:10359C008033002B16D1434B1B6803F00203002B26
:1035AC0005D07B681B69012B01D00123C0E13D4B89
:1035BC001B6823F0F8027B685B69DB003949134315
:1035CC000B603AE07B681B69002B20D0364B012244
:1035DC001A60FEF7B7FB386108E0FEF7B3FB024652
:1035EC003B69D31A022B01D90323A1E12D4B1B6894
:1035FC0003F00203002BF0D02A4B1B6823F0F802D7
:10360C007B685B69DB00274913430B6015E0264B95
:10361C0000221A60FEF796FB386108E0FEF792FB79
:10362C0002463B69D31A022B01D9032380E11D4BBF
:10363C001B6803F00203002BF0D17B681B6803F0BE
:10364C000803002B3AD07B689B69002B19D0174BD1
:10365C0001221A60FEF776FB386108E0FEF772FB78
:10366C0002463B69D31A022B01D9032360E10D4BAF
:10367C005B6A03F00203002BF0D0012000F0D8FAB3
:10368C001CE00A4B00221A60FEF75CFB38610FE06D
:10369C00FEF758FB02463B69D31A022B08D90323C9
:1036AC0046E100BF0010024000004242800442424A
:1036BC00924B5B6A03F00203002BE9D17B681B6819
:1036CC0003F00403002B00F0A6800023FB758B4B4A
:1036DC00DB6903F08053002B0DD1884BDB69874AE3
:1036EC0043F08053D361854BDB6903F08053BB609F
:1036FC00BB680123FB75824B1B6803F48073002BA2
:10370C0018D17F4B1B687E4A43F480731360FEF71D
:10371C0019FB386108E0FEF715FB02463B69D31A2A
:10372C00642B01D9032303E1754B1B6803F48073ED
:10373C00002BF0D07B68DB68012B06D16F4B1B6A2A
:10374C006E4A43F0010313622DE07B68DB68002BAB
:10375C000CD16A4B1B6A694A23F001031362674B55
:10376C001B6A664A23F0040313621CE07B68DB6867
:10377C00052B0CD1614B1B6A604A43F004031362A6
:10378C005E4B1B6A5D4A43F0010313620BE05B4B1B
:10379C001B6A5A4A23F001031362584B1B6A574A9F
:1037AC0023F0040313627B68DB68002B15D0FEF753
:1037BC00C9FA38610AE0FEF7C5FA02463B69D31A2A
:1037CC0041F28832934201D90323B1E04B4B1B6A7F
:1037DC0003F00203002BEED014E0FEF7B3FA3861CD
:1037EC000AE0FEF7AFFA02463B69D31A41F288327F
:1037FC00934201D903239BE0404B1B6A03F0020365
:10380C00002BEED1FB7D012B05D13C4BDB693B4AF8
:10381C0023F08053D3617B68DB69002B00F0878039
:10382C00364B5B6803F00C03082B61D07B68DB69BB
:10383C00022B46D1334B00221A60FEF783FA386113
:10384C0008E0FEF77FFA02463B69D31A022B01D936
:10385C0003236DE0294B1B6803F00073002BF0D1A0
:10386C007B681B6AB3F5803F08D1244B5B6823F45B
:10387C0000327B689B68214913434B601F4B5B688C
:10388C0023F474127B68196A7B685B6A0B431B49CF
:10389C0013434B601B4B01221A60FEF753FA38613D
:1038AC0008E0FEF74FFA02463B69D31A022B01D906
:1038BC0003233DE0114B1B6803F00073002BF0D089
:1038CC0035E0104B00221A60FEF73CFA386108E034
:1038DC00FEF738FA02463B69D31A022B01D90323AF
:1038EC0026E0064B1B6803F00073002BF0D11EE0A2
:1038FC007B68DB69012B07D1012319E00010024022
:10390C0000700040600042420B4B5B68FB60FB6840
:10391C0003F480327B681B6A9A4206D1FB6803F47D
:10392C0070127B685B6A9A4201D0012300E000238D
:10393C0018461837BD4680BD0010024080B584B0D3
:10394C0000AF786039607B68002B01D10123D0E097
:10395C006A4B1B6803F007033A689A4210D9674B0D
:10396C001B6823F0070265493B6813430B60634BEC
:10397C001B6803F007033A689A4201D00123B8E0B0
:10398C007B681B6803F00203002B20D07B681B684C
:10399C0003F00403002B05D0594B5B68584A43F4E1
:1039AC00E06353607B681B6803F00803002B05D0B1
:1039BC00534B5B68524A43F460535360504B5B6803
:1039CC0023F0F0027B689B684D4913434B607B6886
:1039DC001B6803F00103002B40D07B685B68012B54
:1039EC0007D1474B1B6803F40033002B15D101237F
:1039FC007FE07B685B68022B07D1414B1B6803F0AF
:103A0C000073002B09D1012373E03D4B1B6803F0BD
:103A1C000203002B01D101236BE0394B5B6823F0CF
:103A2C0003027B685B68364913434B60FEF78AF9E7
:103A3C00F8600AE0FEF786F90246FB68D31A41F2F9
:103A4C008832934201D9032353E02D4B5B6803F07A
:103A5C000C027B685B689B009A42EBD1274B1B687E
:103A6C0003F007033A689A4210D2244B1B6823F0E8
:103A7C00070222493B6813430B60204B1B6803F081
:103A8C0007033A689A4201D0012332E07B681B6835
:103A9C0003F00403002B08D0194B5B6823F4E0629D
:103AAC007B68DB68164913434B607B681B6803F02B
:103ABC000803002B09D0124B5B6823F460527B681F
:103ACC001B69DB000E4913434B6000F021F80246E2
:103ADC000B4B5B681B0903F00F030A49CB5C22FA02
:103AEC0003F3094A1360094B1B681846FEF7E8F804
:103AFC00002318461037BD4680BD00BF0020024091
:103B0C0000100240E85F0008080000200C000020B4
:103B1C0090B48AB000AF294B3C1D0FCB84E80F004A
:103B2C0040F201233B800023FB610023BB61002397
:103B3C007B6200237B6100233B62214B5B68FB6152
:103B4C00FB6903F00C03042B02D0082B03D02BE0F1
:103B5C001C4B3B622BE0FB699B0C03F00F032833DF
:103B6C003B4413F8243C7B61FB6903F48033002B4A
:103B7C0012D0134B5B685B0C03F0010328333B44FE
:103B8C0013F8283CBB617B690E4A03FB02F2BB694C
:103B9C00B2FBF3F37B6204E07B690B4A02FB03F399
:103BAC007B627B6A3B6202E0064B3B6200BF3B6A76
:103BBC0018462837BD4690BC704700BF205F0008F0
:103BCC000010024000127A0000093D0080B400AFE2
:103BDC00024B1B681846BD4680BC7047080000208D
:103BEC0080B500AFFFF7F2FF0246054B5B681B0A7E
:103BFC0003F007030349CB5C22FA03F3184680BD9C
:103C0C0000100240F85F000880B500AFFFF7DEFF40
:103C1C000246054B5B68DB0A03F007030349CB5CE8
:103C2C0022FA03F3184680BD00100240F85F00082A
:103C3C0080B485B000AF78600A4B1B680A4AA2FBBF
:103C4C0003235B0A7A6802FB03F3FB6000BFFB688B
:103C5C005A1EFA60002BF9D100BF00BF1437BD46C5
:103C6C0080BC704708000020D34D621080B582B034
:103C7C0000AF78607B68002B01D1012376E07B6874
:103C8C005B6A002B08D17B685B68B3F5827F09D037
:103C9C007B680022DA6105E07B6800221A617B6890
:103CAC0000225A617B6800229A627B6893F851303B
:103CBC00DBB2002B06D17B68002283F85020786899
:103CCC00FDF7C0FB7B68022283F851207B681B68E0
:103CDC001A687B681B6822F040021A607B685B687C
:103CEC0003F482727B689B6803F404431A437B6879
:103CFC00DB6803F400631A437B681B6903F002035F
:103D0C001A437B685B6903F001031A437B689B6968
:103D1C0003F400731A437B68DB6903F038031A431E
:103D2C007B681B6A03F0800342EA03017B689B6A91
:103D3C0003F400527B681B680A431A607B689B691A
:103D4C001A0C7B681B6802F004025A607B681B68C3
:103D5C00DA697B681B6822F40062DA617B680022F6
:103D6C005A657B68012283F85120002318460837D6
:103D7C00BD4680BD80B487B000AFF860B9607A6092
:103D8C007B800023FB75FB6893F85030012B01D12D
:103D9C00022375E0FB68012283F85020FB6893F83E
:103DAC005130BB75FB685B683B61BB7D012B0DD053
:103DBC003B69B3F5827F06D1FB689B68002B02D16F
:103DCC00BB7D042B02D00223FB7554E0BB68002B97
:103DDC0005D07B68002B02D07B88002B02D10123FD
:103DEC00FB7548E0FB6893F85130DBB2042B03D031
:103DFC00FB68052283F85120FB6800225A65FB689A
:103E0C00BA681A63FB687A889A86FB687A88DA86BD
:103E1C00FB687A689A63FB687A889A87FB687A8869
:103E2C00DA87FB68DB68002B06D0FB68174A1A643C
:103E3C00FB68174A5A6405E0FB68164A1A64FB686B
:103E4C00154A5A64FB681B685A68FB681B6842F089
:103E5C00E0025A60FB681B681B6803F04003402BB0
:103E6C0008D0FB681B681A68FB681B6842F04002AC
:103E7C001A6000E000BFFB68002283F85020FB7D35
:103E8C0018461C37BD4680BC704700BF85410008F2
:103E9C00E5410008C14000082541000880B588B004
:103EAC0000AF78607B681B685B68FB617B681B6894
:103EBC009B68BB61BB699B0903F00103002B0FD10D
:103ECC00BB6903F00103002B0AD0FB699B0903F0CB
:103EDC000103002B04D07B681B6C78689847BEE00C
:103EEC00BB695B0803F00103002B0AD0FB69DB09FB
:103EFC0003F00103002B04D07B685B6C7868984757
:103F0C00ADE0BB695B0903F00103002B06D1BB6973
:103F1C009B0903F00103002B00F0A180FB695B09F6
:103F2C0003F00103002B00F09A80BB699B0903F09E
:103F3C000103002B23D07B6893F85130DBB2032BA9
:103F4C0011D07B685B6D43F004027B685A650023DB
:103F5C007B617B681B68DB687B617B681B689B688B
:103F6C007B617B690BE000233B617B681B68DB6832
:103F7C003B617B681B689B683B613B696FE0BB697D
:103F8C005B0903F00103002B14D07B685B6D43F0DD
:103F9C0001027B685A650023FB607B681B689B6889
:103FAC00FB607B681B681A687B681B6822F0400208
:103FBC001A60FB687B685B6D002B4FD07B681B68BD
:103FCC005A687B681B6822F0E0025A607B68012209
:103FDC0083F85120FB6903F00203002B04D1FB6929
:103FEC0003F00103002B34D07B681B685A687B6894
:103FFC001B6822F003025A607B68DB6C002B11D02B
:10400C007B68DB6C174A5A637B68DB6C1846FDF7E0
:10401C00EBFF0346002B05D07B685B6D43F0400241
:10402C007B685A657B689B6C002B16D07B689B6CFD
:10403C000C4A5A637B689B6C1846FDF7D5FF034608
:10404C00002B0AD07B685B6D43F040027B685A659D
:10405C0003E0786800F011F800E000BF00BF2037E3
:10406C00BD4680BD9940000880B483B000AF786035
:10407C0000BF0C37BD4680BC704780B483B000AF26
:10408C00786000BF0C37BD4680BC704780B584B0EB
:10409C0000AF78607B685B6AFB60FB680022DA87A4
:1040AC00FB680022DA86F868FFF7E7FF00BF1037DD
:1040BC00BD4680BD80B582B000AF78607B681B6860
:1040CC0003F10C027B689B6B1278D2B21A707B687E
:1040DC009B6B5A1C7B689A637B68DB8F9BB2013BA2
:1040EC009AB27B68DA877B68DB8F9BB2002B0FD18F
:1040FC007B681B685A687B681B6822F060025A60F8
:10410C007B68DB8E9BB2002B02D1786800F03AF909
:10411C0000BF0837BD4680BD80B582B000AF786067
:10412C007B681A6B7B681B680C3312781A707B687F
:10413C001B6B5A1C7B681A637B68DB8E9BB2013B42
:10414C009AB27B68DA867B68DB8E9BB2002B0FD130
:10415C007B681B685A687B681B6822F080025A6077
:10416C007B68DB8F9BB2002B02D1786800F00AF9D8
:10417C0000BF0837BD4680BD80B582B000AF786007
:10418C007B681B68DA687B689B6B92B21A807B68D1
:10419C009B6B9A1C7B689A637B68DB8F9BB2013BA1
:1041AC009AB27B68DA877B68DB8F9BB2002B0FD1CE
:1041BC007B681B685A687B681B6822F040025A6057
:1041CC007B68DB8E9BB2002B02D1786800F0DAF8AA
:1041DC0000BF0837BD4680BD80B582B000AF7860A7
:1041EC007B681B6B1A887B681B68DA607B681B6BAF
:1041FC009A1C7B681A637B68DB8E9BB2013B9AB27C
:10420C007B68DA867B68DB8E9BB2002B0FD17B68D8
:10421C001B685A687B681B6822F080025A607B68B6
:10422C00DB8F9BB2002B02D1786800F0ABF800BF9B
:10423C000837BD4680BD000080B588B000AFF8607F
:10424C00B9603B601346FB71FDF77CFD0246BB6A0F
:10425C009B1A3A681344FB61FDF774FDB861394B46
:10426C001B685B011B0DFA6902FB03F37B6154E0D5
:10427C003B68B3F1FF3F50D0FDF764FD0246BB69CC
:10428C00D31AFA699A4202D9FB69002B3DD1FB681B
:10429C001B685A68FB681B6822F0E0025A60FB68D6
:1042AC005B68B3F5827F11D1FB689B68B3F5004F57
:1042BC0004D0FB689B68B3F5806F07D1FB681B6863
:1042CC001A68FB681B6822F040021A60FB689B6A44
:1042DC00B3F5005F0FD1FB681B681A68FB681B689D
:1042EC0022F400521A60FB681B681A68FB681B6892
:1042FC0042F400521A60FB68012283F85120FB68DB
:10430C00002283F85020032317E07B69002B01D196
:10431C000023FB617B69013B7B61FB681B689A682E
:10432C00BB681340BA689A420CBF01230023DBB26E
:10433C001A46FB799A429BD1002318462037BD467A
:10434C0080BD00BF0800002080B586B002AFF860C9
:10435C00B9607A607B680093BB6800228021F868A2
:10436C00FFF76AFF0346002B07D0FB685B6D43F039
:10437C002002FB685A65032300E00023184610371F
:10438C00BD4680BD80B586B000AF7860354B1B68EC
:10439C00354AA2FB03235B0A642202FB03F33B6155
:1043AC00FDF7D0FC78617B681B685A687B681B68DA
:1043BC0022F020025A603B69002B06D17B685B6DB2
:1043CC0043F020027B685A6509E03B69013B3B6185
:1043DC007B681B689B6803F00203002BEBD07A69A7
:1043EC0064217868FFF7B0FF0346002B05D07B688B
:1043FC005B6D43F020027B685A657B689B68002BE1
:10440C000AD10023FB607B681B68DB68FB607B6860
:10441C001B689B68FB60FB687B685B6D002B15D190
:10442C007B6893F85130DBB2042B07D17B680122F7
:10443C0083F851207868FFF717FE0EE07B680122A5
:10444C0083F85120786801F0EBFC06E07B680122D0
:10445C0083F851207868FFF710FE00BF1837BD466F
:10446C0080BD00BF08000020F119760580B582B030
:10447C0000AF78607B68002B01D1012341E07B68A1
:10448C0093F83D30DBB2002B06D17B68002283F819
:10449C003C207868FDF764F87B68022283F83D20A5
:1044AC007B681A687B6804331946104600F006FCDA
:1044BC007B68012283F846207B68012283F83E202A
:1044CC007B68012283F83F207B68012283F840201F
:1044DC007B68012283F841207B68012283F842200B
:1044EC007B68012283F843207B68012283F84420F7
:1044FC007B68012283F845207B68012283F83D20EC
:10450C00002318460837BD4680BD80B483B000AF89
:10451C0078607B681B681A6A41F211131340002BF8
:10452C000FD17B681B681A6A40F244431340002B7E
:10453C0007D17B681B681A687B681B6822F0010234
:10454C001A607B68012283F83D20002318460C3743
:10455C00BD4680BC7047000080B485B000AF786069
:10456C007B6893F83D30DBB2012B01D001233AE09C
:10457C007B68022283F83D207B681B68DA687B68C5
:10458C001B6842F00102DA607B681B68184A934290
:10459C000ED07B681B68B3F1804F09D07B681B6819
:1045AC00144A934204D07B681B68134A934211D17E
:1045BC007B681B689B6803F00703FB60FB68062B9A
:1045CC0010D07B681B681A687B681B6842F001027C
:1045DC001A6007E07B681B681A687B681B6842F0EE
:1045EC0001021A60002318461437BD4680BC704780
:1045FC00002C0140000400400008004080B582B04F
:10460C0000AF78607B68002B01D1012341E07B680F
:10461C0093F83D30DBB2002B06D17B68002283F887
:10462C003C20786800F039F87B68022283F83D2042
:10463C007B681A687B6804331946104600F03EFB11
:10464C007B68012283F846207B68012283F83E2098
:10465C007B68012283F83F207B68012283F840208D
:10466C007B68012283F841207B68012283F8422079
:10467C007B68012283F843207B68012283F8442065
:10468C007B68012283F845207B68012283F83D205A
:10469C00002318460837BD4680BD80B483B000AFF8
:1046AC00786000BF0C37BD4680BC704780B582B0C7
:1046BC0000AF786039607B68002B01D1012341E0A9
:1046CC007B6893F83D30DBB2002B06D17B6800226F
:1046DC0083F83C20786800F039F87B68022283F874
:1046EC003D207B681A687B6804331946104600F03D
:1046FC00E5FA7B681B681A687B681B6822F0080265
:10470C001A607B681B6819687B681B683A680A43E7
:10471C001A607B68012283F846207B68012283F8AB
:10472C003E207B68012283F83F207B68012283F8BE
:10473C0042207B68012283F843207B68012283F8A6
:10474C003D20002318460837BD4680BD80B483B099
:10475C0000AF786000BF0C37BD4680BC704780B599
:10476C0082B000AF78607B681B681B6903F00203A2
:10477C00022B22D17B681B68DB6803F00203022B3F
:10478C001BD17B681B686FF002021A617B680122E7
:10479C001A777B681B689B6903F00303002B03D01B
:1047AC00786800F070FA05E0786800F063FA7868D1
:1047BC0000F072FA7B6800221A777B681B681B6911
:1047CC0003F00403042B22D17B681B68DB6803F025
:1047DC000403042B1BD17B681B686FF004021A6165
:1047EC007B6802221A777B681B689B6903F4407311
:1047FC00002B03D0786800F046FA05E0786800F0EA
:10480C0039FA786800F048FA7B6800221A777B68DE
:10481C001B681B6903F00803082B22D17B681B68FB
:10482C00DB6803F00803082B1BD17B681B686FF057
:10483C0008021A617B6804221A777B681B68DB69A3
:10484C0003F00303002B03D0786800F01CFA05E09A
:10485C00786800F00FFA786800F01EFA7B68002286
:10486C001A777B681B681B6903F01003102B22D18D
:10487C007B681B68DB6803F01003102B1BD17B6873
:10488C001B686FF010021A617B6808221A777B682C
:10489C001B68DB6903F44073002B03D0786800F0CD
:1048AC00F2F905E0786800F0E5F9786800F0F4F9C1
:1048BC007B6800221A777B681B681B6903F0010375
:1048CC00012B0ED17B681B68DB6803F00103012B05
:1048DC0007D17B681B686FF001021A617868FCF7DE
:1048EC0021F97B681B681B6903F08003802B0ED1B8
:1048FC007B681B68DB6803F08003802B07D17B6827
:10490C001B686FF080021A61786800F0BEFC7B684F
:10491C001B681B6903F04003402B0ED17B681B689E
:10492C00DB6803F04003402B07D17B681B686FF0FA
:10493C0040021A61786800F0B8F97B681B681B6943
:10494C0003F02003202B0ED17B681B68DB6803F07F
:10495C002003202B07D17B681B686FF020021A61A3
:10496C00786800F089FC00BF0837BD4680BD0000A8
:10497C0080B584B000AFF860B9607A60FB6893F8DA
:10498C003C30012B01D10223ACE0FB68012283F8FF
:10499C003C207B680C2B00F29F8001A252F823F084
:1049AC00E1490008E54A0008E54A0008E54A000824
:1049BC00214A0008E54A0008E54A0008E54A0008D3
:1049CC00634A0008E54A0008E54A0008E54A000881
:1049DC00A34A0008FB681B68B968184600F0D0F9B8
:1049EC00FB681B689A69FB681B6842F008029A61B5
:1049FC00FB681B689A69FB681B6822F004029A61C9
:104A0C00FB681B689969BB681A69FB681B680A43D9
:104A1C009A6162E0FB681B68B968184600F016FAE8
:104A2C00FB681B689A69FB681B6842F400629A6118
:104A3C00FB681B689A69FB681B6822F480629A61A8
:104A4C00FB681B689969BB681B691A02FB681B68C9
:104A5C000A439A6141E0FB681B68B968184600F08C
:104A6C005FFAFB681B68DA69FB681B6842F0080296
:104A7C00DA61FB681B68DA69FB681B6822F00402C8
:104A8C00DA61FB681B68D969BB681A69FB681B682B
:104A9C000A43DA6121E0FB681B68B968184600F02C
:104AAC00A9FAFB681B68DA69FB681B6842F40062B0
:104ABC00DA61FB681B68DA69FB681B6822F48062A8
:104ACC00DA61FB681B68D969BB681B691A02FB6851
:104ADC001B680A43DA6100E000BFFB68002283F820
:104AEC003C20002318461037BD4680BD80B584B0ED
:104AFC0000AF786039607B6893F83C30012B01D1B2
:104B0C000223B3E07B68012283F83C207B680222FD
:104B1C0083F83D207B681B689B68FB60FB6823F077
:104B2C007703FB60FB6823F47F43FB607B681B68A7
:104B3C00FA689A603B681B68B3F5005F3ED0B3F52A
:104B4C00005F00F28780B3F5805F00F08580B3F5DD
:104B5C00805F7FD8702B1AD0702B7BD8602B50D0F5
:104B6C00602B77D8502B3CD0502B73D8402B58D07F
:104B7C00402B6FD8302B64D0302B6BD8202B60D0CF
:104B8C00202B67D8002B5CD0102B5AD062E07B68AE
:104B9C0018683B6899683B685A683B68DB6800F0AA
:104BAC00EEFA7B681B689B68FB60FB6843F077033D
:104BBC00FB607B681B68FA689A604EE07B6818683B
:104BCC003B6899683B685A683B68DB6800F0D7FA29
:104BDC007B681B689A687B681B6842F480429A6009
:104BEC003BE07B6818683B6859683B68DB681A4691
:104BFC0000F04EFA7B681B685021184600F0A5FAAD
:104C0C002BE07B6818683B6859683B68DB681A4680
:104C1C0000F06CFA7B681B686021184600F095FA6E
:104C2C001BE07B6818683B6859683B68DB681A4670
:104C3C0000F02EFA7B681B684021184600F085FABC
:104C4C000BE07B681A683B681B681946104600F03D
:104C5C007CFA02E000BF00E000BF7B68012283F811
:104C6C003D207B68002283F83C2000231846103737
:104C7C00BD4680BD80B483B000AF786000BF0C37F8
:104C8C00BD4680BC704780B483B000AF786000BF75
:104C9C000C37BD4680BC704780B483B000AF7860E1
:104CAC0000BF0C37BD4680BC704780B483B000AFEA
:104CBC00786000BF0C37BD4680BC704780B485B0AF
:104CCC0000AF786039607B681B68FB607B68294AA1
:104CDC0093420BD07B68B3F1804F07D07B68264A98
:104CEC00934203D07B68254A934208D1FB6823F09A
:104CFC007003FB603B685B68FA681343FB607B687E
:104D0C001C4A93420BD07B68B3F1804F07D07B6871
:104D1C00194A934203D07B68184A934208D1FB6826
:104D2C0023F44073FB603B68DB68FA681343FB6059
:104D3C00FB6823F080023B685B691343FB607B6874
:104D4C00FA681A603B689A687B68DA623B681A6892
:104D5C007B689A627B68074A934203D13B681A6965
:104D6C007B681A637B6801225A6100BF1437BD4609
:104D7C0080BC7047002C014000040040000800403B
:104D8C0080B487B000AF786039607B681B6A23F011
:104D9C0001027B681A627B681B6A7B617B685B68BB
:104DAC003B617B689B69FB60FB6823F07003FB60D5
:104DBC00FB6823F00303FB603B681B68FA68134332
:104DCC00FB607B6923F002037B613B689B687A691B
:104DDC0013437B617B681C4A93420CD17B6923F0A3
:104DEC0008037B613B68DB687A6913437B617B69F1
:104DFC0023F004037B617B68134A934211D13B6916
:104E0C0023F480733B613B6923F400733B613B6883
:104E1C005B693A6913433B613B689B693A6913438D
:104E2C003B617B683A695A607B68FA689A613B68B7
:104E3C005A687B685A637B687A691A6200BF1C37B0
:104E4C00BD4680BC704700BF002C014080B487B0C9
:104E5C0000AF786039607B681B6A23F010027B68B6
:104E6C001A627B681B6A7B617B685B683B617B6851
:104E7C009B69FB60FB6823F4E043FB60FB6823F455
:104E8C004073FB603B681B681B02FA681343FB60B2
:104E9C007B6923F020037B613B689B681B017A696B
:104EAC0013437B617B681D4A93420DD17B6923F0D0
:104EBC0080037B613B68DB681B017A6913437B6170
:104ECC007B6923F040037B617B68144A934213D1C6
:104EDC003B6923F480633B613B6923F400633B61D2
:104EEC003B685B699B003A6913433B613B689B6978
:104EFC009B003A6913433B617B683A695A607B6853
:104F0C00FA689A613B685A687B689A637B687A692D
:104F1C001A6200BF1C37BD4680BC7047002C014094
:104F2C0080B487B000AF786039607B681B6A23F46B
:104F3C0080727B681A627B681B6A7B617B685B682A
:104F4C003B617B68DB69FB60FB6823F07003FB60F3
:104F5C00FB6823F00303FB603B681B68FA68134390
:104F6C00FB607B6923F400737B613B689B681B02CD
:104F7C007A6913437B617B681D4A93420DD17B692F
:104F8C0023F400637B613B68DB681B027A69134383
:104F9C007B617B6923F480637B617B68144A934259
:104FAC0013D13B6923F480533B613B6923F40053D9
:104FBC003B613B685B691B013A6913433B613B688E
:104FCC009B691B013A6913433B617B683A695A60E0
:104FDC007B68FA68DA613B685A687B68DA637B68DD
:104FEC007A691A6200BF1C37BD4680BC704700BF8F
:104FFC00002C014080B487B000AF786039607B68CA
:10500C001B6A23F480527B681A627B681B6A3B61C3
:10501C007B685B687B617B68DB69FB60FB6823F406
:10502C00E043FB60FB6823F44073FB603B681B6848
:10503C001B02FA681343FB603B6923F400533B618A
:10504C003B689B681B033A6913433B617B680F4ABF
:10505C00934209D17B6923F480437B613B685B6994
:10506C009B017A6913437B617B687A695A607B6820
:10507C00FA68DA613B685A687B681A647B683A693B
:10508C001A6200BF1C37BD4680BC7047002C014023
:10509C0080B487B000AFF860B9607A60FB681B6AB7
:1050AC007B61FB681B6A23F00102FB681A62FB68D8
:1050BC009B693B613B6923F0F0033B617B681B01FF
:1050CC003A6913433B617B6923F00A037B617A697C
:1050DC00BB6813437B61FB683A699A61FB687A6928
:1050EC001A6200BF1C37BD4680BC704780B487B0C5
:1050FC0000AFF860B9607A60FB681B6A23F010029D
:10510C00FB681A62FB689B697B61FB681B6A3B61ED
:10511C007B6923F470437B617B681B037A691343BF
:10512C007B613B6923F0A0033B61BB681B013A69BF
:10513C0013433B61FB687A699A61FB683A691A62AE
:10514C0000BF1C37BD4680BC704780B485B000AF33
:10515C00786039607B689B68FB60FB6823F07003A8
:10516C00FB603A68FB68134343F00703FB607B6802
:10517C00FA689A6000BF1437BD4680BC704780B493
:10518C0087B000AFF860B9607A603B60FB689B68E1
:10519C007B617B6923F47F437B613B681A027B68EC
:1051AC001A43BB6813437A6913437B61FB687A69C2
:1051BC009A6000BF1C37BD4680BC704780B485B078
:1051CC0000AF786039607B6893F83C30012B01D1DB
:1051DC00022346E07B68012283F83C207B68022294
:1051EC0083F83D207B681B685B68FB607B681B68F1
:1051FC009B68BB60FB6823F07003FB603B681B681B
:10520C00FA681343FB607B681B68FA685A607B681A
:10521C001B68164A93420ED07B681B68B3F1804F13
:10522C0009D07B681B68124A934204D07B681B68C8
:10523C00104A93420CD1BB6823F08003BB603B68DF
:10524C005B68BA681343BB607B681B68BA689A607A
:10525C007B68012283F83D207B68002283F83C2088
:10526C00002318461437BD4680BC7047002C014003
:10527C00000400400008004080B483B000AF7860A8
:10528C0000BF0C37BD4680BC704780B483B000AF04
:10529C00786000BF0C37BD4680BC704780B582B0CB
:1052AC0000AF78607B68002B01D101233FE07B6865
:1052BC0093F83D30DBB2002B06D17B68002283F8DB
:1052CC003C207868FCF7ECF97B68242283F83D20BD
:1052DC007B681B68DA687B681B6822F40052DA6012
:1052EC00786800F085FC7B681B681A697B681B6812
:1052FC0022F490421A617B681B685A697B681B68B0
:10530C0022F02A025A617B681B68DA687B681B688A
:10531C0042F40052DA607B6800221A647B68202217
:10532C0083F83D207B68202283F83E20002318461A
:10533C000837BD4680BD80B58AB002AFF860B96051
:10534C003B601346FB8000237B61FB6893F83D3088
:10535C00DBB2202B7CD1BB68002B02D0FB88002B4E
:10536C0001D1012375E0FB6893F83C30012B01D18E
:10537C0002236EE0FB68012283F83C20FB680022CC
:10538C001A64FB68212283F83D20FCF7DBFC786172
:10539C00FB68FA889A84FB68FA88DA84FB689B6855
:1053AC00B3F5805F08D1FB681B69002B04D1002387
:1053BC00FB61BB68BB6103E0BB68FB610023BB61A5
:1053CC00FB68002283F83C202AE03B6800937B6951
:1053DC0000228021F86800F038FA0346002B01D037
:1053EC00032336E0FB69002B0BD1BB691B881A46E3
:1053FC00FB681B68C2F308025A60BB690233BB61CD
:10540C0007E0FB691A78FB681B685A60FB6901337B
:10541C00FB61FB68DB8C9BB2013B9AB2FB68DA84C4
:10542C00FB68DB8C9BB2002BCFD13B6800937B6974
:10543C0000224021F86800F008FA0346002B01D046
:10544C00032306E0FB68202283F83D20002300E0C4
:10545C00022318462037BD4680BD80B584B000AF0E
:10546C00F860B9601346FB80FB6893F83E30DBB202
:10547C00202B1DD1BB68002B02D0FB88002B01D147
:10548C00012316E0FB6893F83C30012B01D1022379
:10549C000FE0FB68012283F83C20FB6800221A63B2
:1054AC00FB881A46B968F86800F019FA034600E060
:1054BC00022318461037BD4680BD000080B58AB067
:1054CC0000AF78607B681B681B687B627B681B681D
:1054DC00DB683B627B681B685B69FB610023BB611B
:1054EC0000237B617B6A03F00F03BB61BB69002B5C
:1054FC000DD17B6A03F02003002B08D03B6A03F02C
:10550C002003002B03D0786800F0C9FA7BE1BB695B
:10551C00002B00F0B180FB6903F00103002B05D1D7
:10552C003B6A03F49073002B00F0A6807B6A03F0B7
:10553C000103002B0AD03B6A03F48073002B05D0C7
:10554C007B681B6C43F001027B681A647B6A03F076
:10555C000403002B0AD0FB6903F00103002B05D0D8
:10556C007B681B6C43F002027B681A647B6A03F055
:10557C000203002B0AD0FB6903F00103002B05D0BA
:10558C007B681B6C43F004027B681A647B6A03F033
:10559C000803002B0FD03B6A03F02003002B04D12F
:1055AC00FB6903F00103002B05D07B681B6C43F0F7
:1055BC0008027B681A647B681B6C002B00F01E8150
:1055CC007B6A03F02003002B07D03B6A03F0200317
:1055DC00002B02D0786800F062FA7B681B685B696C
:1055EC0003F04003002B14BF01230023DBB27B61CB
:1055FC007B681B6C03F00803002B02D17B69002B2A
:10560C0031D0786800F0A4F97B681B685B6903F003
:10561C004003002B23D07B681B685A697B681B688E
:10562C0022F040025A617B689B6B002B13D07B6885
:10563C009B6B764A5A637B689B6B1846FCF7D4FCD1
:10564C000346002B16D07B689B6B5B6B7A68926B66
:10565C00104698470EE0786800F0E3F80AE07868A6
:10566C0000F0DFF806E0786800F0DBF87B680022D9
:10567C001A64C3E000BFC1E07B681B6B012B40F0D8
:10568C00A1807B6A03F01003002B00F09B803B6A27
:10569C0003F01003002B00F095800023FB607B6867
:1056AC001B681B68FB607B681B685B68FB60FB68A6
:1056BC007B681B685B6903F04003002B4ED07B6852
:1056CC009B6B1B685B683B823B8A002B00F09880CD
:1056DC007B689B8D3A8A9A4280F092807B683A8AEA
:1056EC00DA857B689B6B9B69202B2BD07B681B68B6
:1056FC00DA687B681B6822F48072DA607B681B684E
:10570C005A697B681B6822F001025A617B681B682E
:10571C005A697B681B6822F040025A617B68202220
:10572C0083F83E207B6800221A637B681B68DA686A
:10573C007B681B6822F01002DA607B689B6B184652
:10574C00FCF717FC7B689A8D7B68DB8D9BB2D31AB8
:10575C009BB21946786800F06DF851E07B689A8D21
:10576C007B68DB8D9BB2D31A7B827B68DB8D9BB213
:10577C00002B47D07B8A002B44D07B681B68DA68EF
:10578C007B681B6822F49072DA607B681B685A692C
:10579C007B681B6822F001025A617B68202283F827
:1057AC003E207B6800221A637B681B68DA687B6882
:1057BC001B6822F01002DA607B8A1946786800F0C8
:1057CC0039F81FE07B6A03F08003002B08D03B6A9A
:1057DC0003F08003002B03D0786800F0F9F812E096
:1057EC007B6A03F04003002B0DD03B6A03F04003AF
:1057FC00002B08D0786800F03AF904E000BF02E012
:10580C0000BF00E000BF2837BD4680BDB559000879
:10581C0080B483B000AF786000BF0C37BD4680BC4D
:10582C00704780B483B000AF786000BF0C37BD46C2
:10583C0080BC704780B483B000AF78600B467B802F
:10584C0000BF0C37BD4680BC704780B584B000AF3C
:10585C00F860B9603B601346FB712CE0BB69B3F197
:10586C00FF3F28D0BB69002B07D0FCF76BFA024630
:10587C003B68D31ABA699A421DD2FB681B68DA6876
:10588C00FB681B6822F4D072DA60FB681B685A69EB
:10589C00FB681B6822F001025A61FB68202283F826
:1058AC003D20FB68202283F83E20FB68002283F811
:1058BC003C2003230FE0FB681B681A68BB6813408D
:1058CC00BA689A420CBF01230023DBB21A46FB795B
:1058DC009A42C3D0002318461037BD4680BD80B411
:1058EC0085B000AFF860B9601346FB80FB68BA68FE
:1058FC009A62FB68FA889A85FB68FA88DA85FB68F5
:10590C0000221A64FB68222283F83E20FB680022E6
:10591C0083F83C20FB681B68DA68FB681B6842F460
:10592C008072DA60FB681B685A69FB681B6842F07E
:10593C0001025A61FB681B68DA68FB681B6842F05D
:10594C002002DA60002318461437BD4680BC70472D
:10595C0080B483B000AF78607B681B68DA687B68C2
:10596C001B6822F49072DA607B681B685A697B684A
:10597C001B6822F001025A617B681B6B012B07D15B
:10598C007B681B68DA687B681B6822F01002DA609F
:10599C007B68202283F83E207B6800221A6300BFBC
:1059AC000C37BD4680BC704780B584B000AF7860C2
:1059BC007B685B6AFB60FB680022DA85FB6800226F
:1059CC00DA84F868FFF72DFF00BF1037BD4680BDA5
:1059DC0080B485B000AF78607B6893F83D30DBB263
:1059EC00212B3ED17B689B68B3F5805F14D17B681B
:1059FC001B69002B10D17B681B6AFB60FB681B8842
:105A0C001A467B681B68C2F308025A607B681B6AE3
:105A1C009A1C7B681A6208E07B681B6A591C7A68BE
:105A2C0011621A787B681B685A607B68DB8C9BB2AE
:105A3C00013B9BB27A681946D184002B0FD17B684D
:105A4C001B68DA687B681B6822F08002DA607B686E
:105A5C001B68DA687B681B6842F04002DA6000233E
:105A6C0000E0022318461437BD4680BC704780B551
:105A7C0082B000AF78607B681B68DA687B681B6853
:105A8C0022F04002DA607B68202283F83D2078689F
:105A9C00FFF7BEFE002318460837BD4680BD80B513
:105AAC0086B000AF78607B6893F83E30DBB2222B77
:105ABC0040F099807B689B68B3F5805F17D17B6859
:105ACC001B69002B13D100237B617B689B6A3B61B4
