:020000040800F2
:1000000000500020FD1D0008CD1C0008D31C000876
:10001000D91C0008DF1C0008E51C000800000000D7
:10002000000000000000000000000000EB1C0008C1
:10003000F71C000800000000031D00080F1D000849
:10004000451E0008451E0008451E0008451E000804
:10005000451E0008451E0008451E0008451E0008F4
:10006000451E0008451E0008451E0008451E0008E4
:10007000451E0008451E0008451E0008451E0008D4
:10008000451E0008451E0008451E0008451E0008C4
:10009000451E0008451E0008451E0008451E0008B4
:1000A000451E0008451E0008451E0008451E0008A4
:1000B000451E00081D1D0008311D0008451E0008D2
:1000C000451E0008451E0008451E0008451E000884
:1000D0004D1D0008611D0008451E0008451E000852
:1000E000751D0008451E0008451E000800000000A0
:1000F0000000000000000000000000000000000000
:0C01000000000000000000005FF808F1A3
:1001100010B5054C237833B9044B13B10448AFF341
:1001200000800123237010BD80000020000000002B
:10013000A88D000808B5034B1BB103490348AFF372
:10014000008008BD0000000084000020A88D000889
:10015000034613F8012B002AFBD1181A0138704707
:1001600081F0004102E000BF83F0004330B54FEA68
:1001700041044FEA430594EA050F08BF90EA020FD5
:100180001FBF54EA000C55EA020C7FEA645C7FEA68
:10019000655C00F0E2804FEA5454D4EB5555B8BF8B
:1001A0006D420CDD2C4480EA020281EA030382EAFC
:1001B000000083EA010180EA020281EA0303362D8E
:1001C00088BF30BD11F0004F4FEA01314FF4801C61
:1001D0004CEA113102D0404261EB410113F0004F73
:1001E0004FEA03334CEA133302D0524263EB43032A
:1001F00094EA050F00F0A780A4F10104D5F1200EC8
:100200000DDB02FA0EFC22FA05F2801841F1000122
:1002100003FA0EF2801843FA05F359410EE0A5F1F6
:1002200020050EF1200E012A03FA0EFC28BF4CF027
:10023000020C43FA05F3C01851EBE37101F00045DD
:1002400007D54FF0000EDCF1000C7EEB00006EEBEA
:100250000101B1F5801F1BD3B1F5001F0CD3490874
:100260005FEA30004FEA3C0C04F101044FEA4452CB
:1002700012F5800F80F09A80BCF1004F08BF5FEA52
:10028000500C50F1000041EB045141EA050130BD32
:100290005FEA4C0C404141EB0101013C28BFB1F544
:1002A000801FE9D291F0000F04BF01460020B1FA8F
:1002B00081F308BF2033A3F10B03B3F120020CDA62
:1002C0000C3208DD02F1140CC2F10C0201FA0CF040
:1002D00021FA02F10CE002F11402D8BFC2F1200CA5
:1002E00001FA02F120FA0CFCDCBF41EA0C0190405B
:1002F000E41AA2BF01EB0451294330BD6FEA0404A4
:100300001F3C1CDA0C340EDC04F11404C4F120028E
:1003100020FA04F001FA02F340EA030021FA04F3A0
:1003200045EA030130BDC4F10C04C4F1200220FAF7
:1003300002F001FA04F340EA0300294630BD21FA35
:1003400004F0294630BD94F0000F83F4801306BFFB
:1003500081F480110134013D4EE77FEA645C18BFEF
:100360007FEA655C29D094EA050F08BF90EA020F86
:1003700005D054EA000C04BF1946104630BD91EA7E
:10038000030F1EBF0021002030BD5FEA545C05D181
:100390004000494128BF41F0004130BD14F58004C0
:1003A0003CBF01F5801130BD01F0004545F0FE4134
:1003B00041F470014FF0000030BD7FEA645C1ABF69
:1003C000194610467FEA655C1CBF0B46024650EAA0
:1003D000013406BF52EA033591EA030F41F40021CC
:1003E00030BD00BF90F0000F04BF0021704730B552
:1003F0004FF4806404F132044FF000054FF0000127
:1004000050E700BF90F0000F04BF0021704730B5E7
:100410004FF4806404F1320410F0004548BF4042BC
:100420004FF000013EE700BF42004FEAE2014FEA11
:1004300031014FEA02701FBF12F07F4393F07F4FEC
:1004400081F06051704732F07F4208BF704793F0EF
:100450007F4F04BF41F40021704730B54FF4607402
:1004600001F0004521F000411CE700BF50EA010205
:1004700008BF704730B54FF000050AE050EA0102AE
:1004800008BF704730B511F0004502D5404261EB1E
:1004900041014FF4806404F132045FEA915C3FF45F
:1004A000D8AE4FF003025FEADC0C18BF03325FEAFC
:1004B000DC0C18BF033202EBDC02C2F1200300FAAD
:1004C00003FC20FA02F001FA03FE40EA0E0021FAD2
:1004D00002F11444BDE600BF70B54FF0FF0C4CF4C0
:1004E000E06C1CEA11541DBF1CEA135594EA0C0F72
:1004F00095EA0C0F00F0DEF82C4481EA030621EAAD
:100500004C5123EA4C5350EA013518BF52EA0335E7
:1005100041F4801143F4801338D0A0FB02CE4FF099
:100520000005E1FB02E506F00042E0FB03E54FF0C9
:100530000006E1FB03569CF0000F18BF4EF0010EC1
:10054000A4F1FF04B6F5007F64F5407404D25FEABD
:100550004E0E6D4146EB060642EAC62141EA555170
:100560004FEAC52040EA5E504FEACE2EB4F1FD0CB2
:1005700088BFBCF5E06F1ED8BEF1004F08BF5FEA30
:10058000500E50F1000041EB045170BD06F00046E2
:1005900046EA010140EA020081EA0301B4EB5C048F
:1005A000C2BFD4EB0C0541EA045170BD41F4801187
:1005B0004FF0000E013C00F3AB8014F1360FDEBFAC
:1005C000002001F0004170BDC4F10004203C35DA88
:1005D0000C341BDC04F11404C4F1200500FA05F30B
:1005E00020FA04F001FA05F240EA020001F00042AC
:1005F00021F0004110EBD37021FA04F642EB060122
:100600005EEA430E08BF20EAD37070BDC4F10C044B
:10061000C4F1200500FA04F320FA05F001FA04F20F
:1006200040EA020001F0004110EBD37041F10001FB
:100630005EEA430E08BF20EAD37070BDC4F1200506
:1006400000FA05F24EEA020E20FA04F301FA05F26E
:1006500043EA020321FA04F001F0004121FA04F216
:1006600020EA020000EBD3705EEA430E08BF20EAE6
:10067000D37070BD94F0000F0FD101F00046400020
:1006800041EB010111F4801F08BF013CF7D041EAA2
:10069000060195F0000F18BF704703F000465200A6
:1006A00043EB030313F4801F08BF013DF7D043EA77
:1006B0000603704794EA0C0F0CEA135518BF95EA2D
:1006C0000C0F0CD050EA410618BF52EA4306D1D1B4
:1006D00081EA030101F000414FF0000070BD50EAD3
:1006E000410606BF1046194652EA430619D094EA5D
:1006F0000C0F02D150EA013613D195EA0C0F05D147
:1007000052EA03361CBF104619460AD181EA03019A
:1007100001F0004141F0FE4141F470014FF0000052
:1007200070BD41F0FE4141F4780170BD70B54FF0ED
:10073000FF0C4CF4E06C1CEA11541DBF1CEA13556D
:1007400094EA0C0F95EA0C0F00F0A7F8A4EB05044F
:1007500081EA030E52EA03354FEA013100F0888046
:100760004FEA03334FF0805545EA131343EA12630F
:100770004FEA022245EA111545EA10654FEA0026C4
:100780000EF000419D4208BF964244F1FD0404F57D
:10079000407402D25B084FEA3202B61A65EB0305D9
:1007A0005B084FEA32024FF480104FF4002CB6EB96
:1007B000020E75EB030E22BFB61A754640EA0C0016
:1007C0005B084FEA3202B6EB020E75EB030E22BF56
:1007D000B61A754640EA5C005B084FEA3202B6EB97
:1007E000020E75EB030E22BFB61A754640EA9C0056
:1007F0005B084FEA3202B6EB020E75EB030E22BF26
:10080000B61A754640EADC0055EA060E18D04FEAE3
:10081000051545EA16754FEA06164FEAC30343EA83
:1008200052734FEAC2025FEA1C1CC0D111F4801F50
:100830000BD141EA00014FF000004FF0004CB6E749
:1008400011F4801F04BF01430020B4F1FD0C88BFE8
:10085000BCF5E06F3FF6AFAEB5EB030C04BFB6EBF3
:10086000020C5FEA500C50F1000041EB045170BDE6
:100870000EF0004E4EEA113114EB5C04C2BFD4EB13
:100880000C0541EA045170BD41F480114FF0000E97
:10089000013C90E645EA060E8DE60CEA135594EA13
:1008A0000C0F08BF95EA0C0F3FF43BAF94EA0C0F16
:1008B0000AD150EA01347FF434AF95EA0C0F7FF48B
:1008C00025AF104619462CE795EA0C0F06D152EADF
:1008D00003353FF4FDAE1046194622E750EA4106C3
:1008E00018BF52EA43067FF4C5AE50EA41047FF4D4
:1008F0000DAF52EA43057FF4EBAE12E74A0011D286
:1009000012F5001211D20DD56FF47873B3EB625269
:100910000ED44FEAC12343F0004343EA505323FA75
:1009200002F070474FF00000704750EA013002D1EA
:100930004FF0FF3070474FF00000704780B5B0B007
:1009400004AFF860B9607A603B60D24B00221A7045
:100950000023C7F88C300023C7F888300023C7F87D
:10096000AC300023C7F8A8300FE0D7F8A8309B00C0
:10097000FA6813441B68D7F8AC201344C7F8AC30AE
:10098000D7F8A8300133C7F8A830D7F8A820BB683B
:100990009A42EADBBB68D7F8AC20B2FBF3F3C7F8A6
:1009A000AC300023C7F8A83013E0D7F8A8309B007C
:1009B000FA6813441B68D7F8AC20D31A1946B64A14
:1009C000D7F8A83042F82310D7F8A8300133C7F879
:1009D000A830D7F8A820BB689A42E6DB0023C7F806
:1009E000A83028E0AC4AD7F8A83052F82320D7F82E
:1009F000A8300133A84951F823301A44D7F8A83059
:100A00000233A54951F823301A44D7F8A8300333EC
:100A1000A14951F823301344002B00DA03339B1013
:100A200019469D4AD7F8A83042F82310D7F8A830C5
:100A30000133C7F8A830D7F8A8305F2BD2DD0023E8
:100A4000C7F89C300023C7F8A8300EE0924AD7F8C8
:100A5000A83052F82330D7F89C201344C7F89C30B4
:100A6000D7F8A8300133C7F8A830D7F8A830632BDF
:100A7000ECDDD7F89C30894A82FB03125211DB1758
:100A8000D31AC7F89C30D7F89C301D2B02DC1E23EC
:100A9000C7F89C30D7F89C303C2B02DD3C23C7F8CC
:100AA0009C300023C7F8A8300CE0D7F8A8309B0092
:100AB000B0333B44002243F8882CD7F8A8300133E8
:100AC000C7F8A830D7F8A8300E2BEEDD07F1640187
:100AD00007F128000F23029304230193D7F89C30D9
:100AE000009364236C4A00F03DFA0023C7F8983065
:100AF0007B6E012B38DD0123C7F8A83019E0D7F849
:100B0000A8309B00B0333B4453F8882CD7F8A8306A
:100B1000013B9B00B0333B4453F8883CD31AD7F8D1
:100B200098201344C7F89830D7F8A8300133C7F895
:100B3000A8307B6ED7F8A8209A42E0DB7B6E013BA1
:100B4000D7F8982092FBF3F3C7F8983040F2DC52C4
:100B5000D7F8983092FBF3F2D7F8BC301A60D7F888
:100B6000C03001221A7007E0D7F8BC304C4A1A6036
:100B7000D7F8C03000221A700023C7F8A8301CE054
:100B8000D7F8A8309B00FA6813441B681946424AFC
:100B9000D7F8A83042F82310D7F8A8309B007A681D
:100BA00013441B6819463F4AD7F8A83042F823106F
:100BB000D7F8A8300133C7F8A830D7F8A820BB6809
:100BC0009A42DDDB7B6EC7F880300023C7F88430A3
:100BD0000023C7F8A4300023C7F8A8300CE0D7F8EA
:100BE000A8309B00B0333B44002243F89C2CD7F83C
:100BF000A8300133C7F8A830D7F8A830042BEEDDB1
:100C00000023C7F8A83015E0D7F8A8309B00B03310
:100C10003B4453F8883C642B07DD3B68204A1A604C
:100C2000D7F8B83000221A708FE1D7F8A830013316
:100C3000C7F8A830D7F8A820D7F880309A42E3DB6D
:100C40000023C7F8A8302CE14FF07F43C7F8943059
:100C50004FF07F43C7F89030D7F8A83001339B009E
:100C6000B0333B4453F8882CD7F8A8309B00B033FE
:100C70003B4453F8883CD31A032B40F30D81D7F83B
:100C8000A8309B00B0333B4453F8883CC7F8A030F1
:100C900037E000BF000000209C0000201F85EB51C2
:100CA00019FCFFFF2C020020A94AD7F8A03052F807
:100CB0002330D7F890209A420ADAA54AD7F8A03014
:100CC00052F82330C7F89030D7F8A030C7F88830F2
:100CD000A04AD7F8A03052F82330D7F894209A428F
:100CE0000ADA9C4AD7F8A03052F82330C7F894307B
:100CF000D7F8A030C7F88C30D7F8A0300133C7F848
:100D0000A030D7F8A83001339B00B0333B4453F8F0
:100D1000883CD7F8A0209A42C6DBD7F8A830013328
:100D20009B00B0333B4453F8883C8A4A52F8232056
:100D3000D7F8A8309B00B0333B4453F8883C854932
:100D400051F82330D21AD7F8A8309B00B0333B4477
:100D500053F8883CD7F88C10CB1A02FB03F37B675F
:100D6000D7F8A8309B00B0333B4453F8883C794A0D
:100D700052F82320D7F8A83001339B00B0333B440E
:100D800053F8881CD7F8A8309B00B0333B4453F885
:100D9000883CCB1A796F91FBF3F313447B676D4A60
:100DA000D7F88C3052F823207B6FD31A7B67D7F8A3
:100DB000A83001339B00B0333B4453F8883C644A6D
:100DC00052F82320D7F8A8309B00B0333B4453F8A7
:100DD000883C5F4951F82330D21AD7F8A8309B00DD
:100DE000B0333B4453F8883CD7F88810CB1A02FB49
:100DF00003F33B67D7F8A8309B00B0333B4453F86C
:100E0000883C534A52F82320D7F8A83001339B007E
:100E1000B0333B4453F8881CD7F8A8309B00B0335C
:100E20003B4453F8883CCB1A396F91FBF3F31344DE
:100E30003B67474AD7F88C3052F823203B6FD31AD0
:100E40003B677B6FD7F8902002FB03F3DB11FB6657
:100E50003B6FD7F8942002FB03F3DB11BB66BB6E3C
:100E6000002B19DDD7F8A430042B15DCFB6E002B0A
:100E700012D0FB6E642203FB02F2BB6E92FBF3F214
:100E8000D7F8A4309B00B0333B4443F89C2CD7F8F0
:100E9000A4300133C7F8A430D7F8A8300133C7F81D
:100EA000A830D7F88030013BD7F8A8209A42FFF647
:100EB000CBAE07F11403D7F8A410184600F046F99A
:100EC000D7F8A430DA0F13445B10FB67FB6F012BDC
:100ED00013DDFB6F013B9B00B0333B4453F89C2C6C
:100EE000FB6F9B00B0333B4453F89C3C1344DA0F38
:100EF00013445B10C7F8843007E0FB6F9B00B033EE
:100F00003B4453F89C3CC7F88430D7F88430022B1C
:100F100011DDD7F88430B72B0DDC0F4AD7F88430B9
:100F200013441B78BB673B68BA6F1A60D7F8B830B8
:100F300001221A7006E03B68084A1A60D7F8B830F8
:100F400000221A70064B01221A70B037BD4680BDD0
:100F50009C0000202C0200200C91000819FCFFFFCF
:100F60000000002080B586B002AFF860B9607A60FA
:100F70003B60BB6900933B687A68B968F86800F029
:100F800012F8FB697A68B968F86800F07FF8BB6806
:100F90001A683B6A9A42A8BF1A46BB681A6000BF2B
:100FA0001037BD4680BD80B487B000AFF860B9602F
:100FB0007A603B6001237B61BB6800221A605AE0C3
:100FC0007B699B007A6813441B683A6A9A424FDA3D
:100FD0007B699B007A6813441A687B6903F180433C
:100FE000013B9B0079680B441B689A4240DD01235A
:100FF0003B6102E03B6901333B617A693B69134421
:101000003A689A420DDD7B699B007A6813441A683E
:1010100079693B690B449B0079680B441B689A42D1
:10102000E8D07B699B007A6813441A6879693B6948
:101030000B449B0079680B441B689A4213DDBB6824
:101040001B680E2B0FDCBB681B68591CBA6811604B
:101050009B00FA6813447A691A603B6901337A6924
:1010600013447B6103E07A693B6913447B6102E0CE
:101070007B6901337B613B68013B7A699A429FDB64
:1010800000BF00BF1C37BD4680BC704780B588B02C
:1010900000AFF860B9607A603B60BB681B681A46B5
:1010A000F968786800F094F84FF0FF33FB613EE098
:1010B000BB681B687B61FB695A1CBB681A60FB69D3
:1010C0000133BB612CE0BB699B00FA6813441A68CA
:1010D000FB69B3F1FF3F05D0FB699B00F9680B4446
:1010E0001B6801E04FF0FF33D31A3B613A693B685C
:1010F0009A4204DC3B685B423A699A420DDABB696A
:101100009B00FA681A44BB681B68581CB9680860E1
:101110009B00F9680B4412681A60BB690133BB611C
:10112000BA697B699A42CEDBFB690133FB61BB681C
:101130001B68FA699A42BBDBBB681B681946F868F2
:1011400000F004F800BF2037BD4680BD80B487B0F2
:1011500000AF7860396001237B612FE07B699B00E1
:101160007A6813441B68FB607B693B610FE03B6955
:1011700003F18043013B9B007A681A443B699B0062
:1011800079680B4412681A603B69013B3B613B691B
:10119000002B0ADD3B6903F18043013B9B007A6829
:1011A00013441B68FA689A42E1DB3B699B007A684A
:1011B0001344FA681A607B6901337B617A693B6882
:1011C0009A42CBDB00BF00BF1C37BD4680BC7047D6
:1011D00080B489B000AFF860B9607A600123FB6128
:1011E00037E0FB699B00BA6813441B687B61FB69AD
:1011F000BB610FE0BB6903F18043013B9B00BA6810
:101200001A44BB699B00B9680B4412681A60BB6939
:10121000013BBB61BB69002B12DD7B699B00FA6857
:1012200013441A68BB6903F18043013B9B00B96812
:101230000B441B689B00F9680B441B689A42D9DC7D
:10124000BB699B00BA6813447A691A60FB69013371
:10125000FB61FA697B689A42C3DB00BF00BF243799
:10126000BD4680BC7047000080B582B000AF78609A
:101270007868FFF7C7F84FF000021A4BFFF72CF918
:1012800002460B4610461946FFF738FB03469AB252
:10129000154B1A80154B1B889BB21946144B1B78B3
:1012A0005B001A460223104805F0FAFF104B1B782A
:1012B0000133DAB20E4B1A700D4B1B787F2B09D11C
:1012C0000A4B1B889BB201339AB2084B1A80084B19
:1012D00000221A700421074801F031FE00BF0837D0
:1012E000BD4680BD00005940601000205C10002009
:1012F0005E1000200008014080B584B004AF01F00A
:1013000027FA00F071F800F08FFA00F017F900F0FA
:1013100061FA00F0DDF800F0C1F900F0ABF800F080
:101320000BFA00F03DF906F07BFF234B1B78002BF6
:1013300004D0214B00221A7006F084FD1F4B1B784D
:10134000002BF2D01E4B1B6800225A621B4B00225E
:101350001A701C4800F098FE1A4801F0BDF90346C7
:10136000002BE2D0184A1949164801F0F1F8184B41
:101370001B78002BD9D0174B1968174B0293174BCA
:101380000193174B0093174B0F4A1048FFF7D6FAFB
:10139000134B93F90030002BC7D0124B1B68642B02
:1013A000C3DC104B1B68452BBFDD0E4B1B6818467A
:1013B000FFF75AFFB9E700BFCA100020FC08002061
:1013C00050050020000900206C070020DC050020EB
:1013D0000000002004000020510F0020580F0020C2
:1013E000500F0020540F002080B590B000AF07F1DF
:1013F000180328220021184607F062F83B1D00223E
:101400001A605A609A60DA601A610123BB614FF476
:101410008033FB614FF400333B620123BB62022344
:101420007B634FF48033BB634FF4E013FB6307F13E
:101430001803184602F082FD0346002B01D000F08D
:1014400069FA0F237B600223BB600023FB604FF42B
:1014500080633B6100237B613B1D0221184602F043
:10146000EFFF0346002B01D000F054FA00BF4037D5
:10147000BD4680BD80B500AF124B134A1A60114BB8
:10148000124A5A600F4B00229A600E4B0022DA601B
:101490000C4B4FF480421A610A4B00225A61094BEF
:1014A00000229A61074B0022DA61064B00221A6281
:1014B000044801F075FD0346002B01D000F02AFA24
:1014C00000BF80BDBC03002000540040A086010086
:1014D00080B500AF174B184A1A60164B4FF4827252
:1014E0005A60144B00229A60124B0022DA60114BB2
:1014F00000221A610F4B00225A610E4B4FF400720A
:101500009A610C4B2822DA610A4B00221A62094BBD
:1015100000225A62074B00229A62064B0A22DA62C4
:10152000044803F027F90346002B01D000F0F2F93C
:1015300000BF80BD100400200030014080B500AF26
:10154000154B164A1A60144B00225A60124B0022A7
:101550009A60114B0022DA600F4B00221A610E4B89
:1015600000225A610C4B4FF400729A610A4B002220
:101570001A62094B00225A62074B00229A62064BFC
:101580000A22DA62044803F0F5F80346002B01D082
:1015900000F0C0F900BF80BD6804002000380040A2
:1015A00080B58EB000AF07F1280300221A605A60A0
:1015B0009A60DA6007F1200300221A605A603B1D2E
:1015C00000221A605A609A60DA601A615A619A6160
:1015D000314B4FF080421A602F4B48225A602E4BFD
:1015E00000229A602C4B40F2F512DA602A4B00225E
:1015F0001A61294B00229A61274804F0FDF803463E
:10160000002B01D000F086F94FF48053BB6207F144
:1016100028031946204804F08DFC0346002B01D016
:1016200000F078F91C4804F0B7F90346002B01D00C
:1016300000F070F90821184804F006FA0346002B60
:1016400001D000F067F900233B6200237B6207F1C1
:1016500020031946104805F003F80346002B01D07B
:1016600000F058F960237B600123BB600223FB601C
:1016700000237B613B1D00221946074804F09CFBB8
:101680000346002B01D000F045F9034800F09AFA18
:1016900000BF3837BD4680BDC004002080B586B08D
:1016A00000AF07F1080300221A605A609A60DA60FE
:1016B0003B4600221A605A601D4B1E4A1A601C4BA2
:1016C0004BF680325A601A4B00229A60184B052262
:1016D000DA60174B00221A61154B00229A611448F8
:1016E00004F08AF80346002B01D000F013F94FF400
:1016F0008053BB6007F1080319460D4804F01AFC3B
:101700000346002B01D000F005F930233B60002395
:101710007B603B461946064804F0A2FF0346002BB7
:1017200001D000F0F7F800BF1837BD4680BD00BFFC
:10173000080500200004004080B586B000AF07F126
:10174000080300221A605A609A60DA603B46002261
:101750001A605A601D4B1E4A1A601C4B4FF43472BB
:101760005A601A4B00229A60184B4FF47A62DA6082
:10177000164B00221A61154B00229A61134804F09F
:101780003BF80346002B01D000F0C4F84FF480531F
:10179000BB6007F1080319460C4804F0CBFB034675
:1017A000002B01D000F0B6F800233B6000237B60E3
:1017B0003B461946054804F053FF0346002B01D071
:1017C00000F0A8F800BF1837BD4680BD50050020C6
:1017D0000008004080B500AF114B124A1A60104B50
:1017E0004FF4E1325A600E4B00229A600C4B0022FB
:1017F000DA600B4B00221A61094B0C225A61084B2C
:1018000000229A61064B0022DA61054804F098FF35
:101810000346002B01D000F07DF800BF80BD00BF63
:10182000980500200038014080B588B000AF07F16E
:10183000100300221A605A609A60DA60314B9B698B
:10184000304A43F0200393612E4B9B6903F0200341
:10185000FB60FB682B4B9B692A4A43F004039361AE
:10186000284B9B6903F00403BB60BB68254B9B6955
:10187000244A43F008039361224B9B6903F0080359
:101880007B607B68002218211F4801F040FB00228A
:1018900008211E4801F03BFB18233B6101237B61BB
:1018A0000023BB610223FB6107F1100319461648B0
:1018B00001F092F94FF480533B61154B7B6100239B
:1018C000BB6107F110031946104801F085F90823A0
:1018D0003B6101237B610023BB610223FB6107F1B4
:1018E00010031946094801F077F900220121282048
:1018F00001F08BF8282001F0A4F800BF2037BD4686
:1019000080BD00BF0010024000080140000C0140F3
:101910000000311080B400AF72B600BFFEE70000D7
:1019200080B485B000AF154B9B69144A43F00103A6
:101930009361124B9B6903F00103BB60BB680F4BC3
:10194000DB690E4A43F08053D3610C4BDB6903F033
:1019500080537B607B680A4B5B68FB60FB6823F00D
:10196000E063FB60FB6843F00073FB60044AFB68C4
:10197000536000BF1437BD4680BC70470010024062
:101980000000014080B588B000AF786007F1100317
:1019900000221A605A609A60DA607B681B68154AF8
:1019A000934223D1144B9B69134A43F0080393617C
:1019B000114B9B6903F00803FB60FB68C0233B618C
:1019C00012237B610323FB6107F1100319460B48C7
:1019D00001F002F9084BDB69074A43F40013D361B5
:1019E000054BDB6903F40013BB60BB6800BF203705
:1019F000BD4680BD0054004000100240000C014074
:101A000080B58AB000AF786007F1180300221A6031
:101A10005A609A60DA607B681B683B4A934230D117
:101A20003A4B9B69394A43F480539361374B9B6926
:101A300003F480537B617B69344B9B69334A43F0E9
:101A400004039361314B9B6903F004033B613B69E1
:101A5000A023BB610223FB6103237B6207F1180310
:101A600019462B4801F0B8F84023BB610023FB6105
:101A700000233B6207F118031946254801F0ACF832
:101A80003EE07B681B68234A934239D11F4BDB69D8
:101A90001E4A43F48043D3611C4BDB6903F480434B
:101AA000FB60FB68194B9B69184A43F0080393617C
:101AB000164B9B6903F00803BB60BB684FF42043DF
:101AC000BB610023FB6100233B6207F11803194649
:101AD000114801F081F84FF48043BB610223FB61A0
:101AE00003237B6207F1180319460B4801F074F8D1
:101AF00000220121242000F088FF242000F0A1FF13
:101B000000BF2837BD4680BD0030014000100240B4
:101B10000008014000380040000C014080B586B04C
:101B200000AF78607B681B68B3F1804F0CD1224B0B
:101B3000DB69214A43F00103D3611F4BDB6903F0EA
:101B400001037B617B6932E07B681B681B4A93421F
:101B500014D1194BDB69184A43F00203D361164BC9
:101B6000DB6903F002033B613B69002200211D2079
:101B700000F04BFF1D2000F064FF18E07B681B683D
:101B80000F4A934213D10C4BDB690B4A43F0040319
:101B9000D361094BDB6903F00403FB60FB6800229F
:101BA00002211E2000F031FF1E2000F04AFF00BF7E
:101BB0001837BD4680BD00BF001002400004004041
:101BC0000008004080B588B000AF786007F11003CE
:101BD00000221A605A609A60DA607B681B68B3F171
:101BE000804F17D10D4B9B690C4A43F0040393615E
:101BF0000A4B9B6903F00403FB60FB6801233B6114
:101C000002237B610223FB6107F11003194604489C
:101C100000F0E2FF00BF2037BD4680BD001002404B
:101C20000008014080B588B000AF786007F110036C
:101C300000221A605A609A60DA607B681B68204A4A
:101C4000934239D11F4B9B691E4A43F480439361F1
:101C50001C4B9B6903F48043FB60FB68194B9B6939
:101C6000184A43F004039361164B9B6903F0040385
:101C7000BB60BB684FF400733B6102237B610323AD
:101C8000FB6107F1100319460F4800F0A5FF4FF460
:101C900080633B6100237B610023BB6107F110037C
:101CA0001946094800F098FF00220221252000F083
:101CB000ACFE252000F0C5FE00BF2037BD4680BD2C
:101CC00000380140001002400008014080B400AF1D
:101CD000FEE780B400AFFEE780B400AFFEE780B45B
:101CE00000AFFEE780B400AFFEE780B400AF00BFF6
:101CF000BD4680BC704780B400AF00BFBD4680BC0D
:101D0000704780B400AF00BFBD4680BC704780B54F
:101D100000AF00F063FD00BF80BD000080B500AFE4
:101D2000024803F041FF00BF80BD00BF080500204E
:101D300080B500AF034B01221A70034803F034FF53
:101D400000BF80BDFC0800205005002080B500AF1A
:101D5000024803F017FA00BF80BD00BF68040020EE
:101D600080B500AF024804F0CBFD00BF80BD00BFCE
:101D70009805002080B500AF4FF4805001F0F8F8CE
:101D800000BF80BD80B586B000AF7860144A154BA7
:101D9000D31A7B617B693B61134B1B68002B02D11B
:101DA000114B124A1A60104B1A687B6813443A6947
:101DB0009A4207D206F03CFB03460C221A604FF011
:101DC000FF3309E0084B1B68FB60074B1A687B6810
:101DD0001344054A1360FB6818461837BD4680BD9A
:101DE0000050002000040000641000202017002094
:101DF00080B400AF00BFBD4680BC70470C480D49A1
:101E00000D4A002302E0D458C4500433C4188C4255
:101E1000F9D30A4A0A4C002301E013600432A242BB
:101E2000FBD3FFF7E5FF06F009FBFFF765FA704704
:101E3000000000208000002018960008800000208C
:101E400020170020FEE780B582B000AF78603960CF
:101E50007B683A681A607B68002283F84A267B68B0
:101E6000043380220021184606F02AFB7B6803F524
:101E7000497380220021184606F022FB7B6800226D
:101E8000A3F846267B680022A3F848267B68002238
:101E900083F84B267B680022A3F844267B68002247
:101EA00083F84C2600BF0837BD4680BD80B588B09A
:101EB00002AFF8607A601A460B46FB7213463B810C
:101EC0003B890133184606F0DDFA03467B617B69E6
:101ED000FA7A1A707B68002B09D03B89002B06D058
:101EE0007B6901333A897968184606F0DBFAFB68AA
:101EF00018683B8901339BB24FF47A7200927A6979
:101F0000AE2101F091F9786906F0C4FA00BF1837E4
:101F1000BD4680BD80B588B002AFF8607A601A46D1
:101F20000B46FB7213463B81FB7AFB75FB68186816
:101F300007F117024FF47A7300930123AE2101F0E9
:101F400073F9FB6818683B894FF47A7200927A68DB
:101F5000AE2101F067FA00BF1837BD4680BD80B5DD
:101F600084B000AF78604023FB7307F10F020123B8
:101F700009217868FFF79AFF00BF1037BD4680BD82
:101F800080B584B000AF78600B46FB700023FB7314
:101F900007F10F02012302217868FFF7BBFFFB7BEB
:101FA00003F07F03DBB2FB73FB78DB015AB2FB7BF0
:101FB0005BB213435BB2DBB2FB7307F10F02012389
:101FC00002217868FFF772FF00BF1037BD4680BD61
:101FD00080B584B000AF78600B46FB700023FB73C4
:101FE00007F10F02012302217868FFF793FFFB7BC3
:101FF00023F02003DBB2FB73FB785B015BB203F0E1
:1020000020035AB2FB7B5BB213435BB2DBB2FB73C0
:1020100007F10F02012302217868FFF747FF00BF95
:102020001037BD4680BD80B584B000AF78600B46E8
:10203000FB70FB785B00DBB203F00203DBB2FB73E7
:1020400007F10F02012303217868FFF72FFF00BF7C
:102050001037BD4680BD80B584B000AF78600B46B8
:10206000FB70FB785B00DBB203F00203DBB2FB73B7
:1020700007F10F02012321217868FFF717FF00BF46
:102080001037BD4680BD000080B584B000AF7860D9
:102090000023BB8107F10C02022300217868FFF7BF
:1020A00039FF3B7B5B09DBB203F00103002B04D05B
:1020B000174B1B680133164A13603B7BDB09DBB20D
:1020C00003F00103002B07D0786800F09BF9114B57
:1020D0001B6801330F4A13607B7B5B08DBB203F0A4
:1020E0000103002B0CD007F10A0207F10B0319467C
:1020F000786800F002FB084B1B680133064A136046
:102100007B68002283F84A2600BF1037BD4680BD99
:1021100070100020681000206C10002080B584B082
:1021200000AF78600B46FB7007F10F020123092115
:102130007868FFF7EFFEFB7B5BB203F07F035AB2D8
:10214000FB78DB015BB213435BB2DBB2FB7307F1DD
:102150000F02012309217868FFF7A8FE00BF10379E
:10216000BD4680BD80B584B000AF78600B46FB7083
:1021700007F10F02012309217868FFF7CBFEFB7BF3
:102180005BB223F007035AB297F9033013435BB2F3
:10219000DBB2FB7307F10F02012309217868FFF717
:1021A00085FE786800F0FAF800BF1037BD4680BDA4
:1021B00080B584B000AF78600B46FB7007F10F026A
:1021C00001230A217868FFF7A5FEFB7B5BB203F0D1
:1021D00063035AB2FB789B005BB213435BB2DBB282
:1021E000FB7307F10F0201230A217868FFF75EFEF7
:1021F00000BF1037BD4680BD80B584B000AF7860A9
:102200000B46FB7007F10F0201230A217868FFF7E4
:1022100081FEFB7B5BB203F07C035AB297F903307B
:1022200013435BB2DBB2FB7307F10F0201230A21F8
:102230007868FFF73BFE00BF1037BD4680BD80B514
:1022400084B000AF78600B46FB7007F10F020123EA
:102250000A217868FFF75EFEFB7B5BB203F01F0389
:102260005AB2FB785B015BB213435BB2DBB2FB7328
:1022700007F10F0201230A217868FFF717FE00BF5C
:102280001037BD4680BD000080B584B000AF7860D7
:1022900039603868FEF7C8F80DA3D3E90023FEF7CC
:1022A00045FA02460B4610461946FEF727FB034641
:1022B000DBB2FB7307F10F0201230C217868FFF7F3
:1022C000F5FD00BF1037BD4680BD00BFAFF30080F5
:1022D0009A9999999999C93F80B584B000AF78606F
:1022E00039603868FEF7A0F80DA3D3E90023FEF7A4
:1022F0001DFA02460B4610461946FEF7FFFA034642
:10230000DBB2FB7307F10F0201230D217868FFF7A1
:10231000CDFD00BF1037BD4680BD00BFAFF30080CC
:102320009A9999999999C93F80B584B000AF78601E
:10233000084611461A460346FB700B46BB7013460F
:102340007B700023FB73FB785B015AB2FB7B5BB2B3
:1023500013435BB2DBB2FB73BB781B015BB203F0D0
:1023600010035AB2FB7B5BB213435BB2DBB2FB736D
:1023700097F9013003F00F035AB2FB7B5BB21343B2
:102380005BB2DBB2FB7307F10F020123082178680F
:10239000FFF78CFD00BF1037BD4680BD80B584B00F
:1023A00000AF78600023FB7307F10F0203230421C1
:1023B0007868FFF77BFD07F10F0203230621786899
:1023C000FFF774FD07F10F02032305217868FFF77B
:1023D0006DFD7B680022A3F846267B680022A3F8E7
:1023E00048267B68002283F84B267B680022A3F8EE
:1023F00044267B68002283F84C2600BF1037BD4678
:1024000080BD000080B588B000AF78600023FB7409
:102410000023BB7407F11302012304217868FFF73E
:1024200079FD07F11202012306217868FFF772FD9A
:10243000FA7CBB7CD31ADBB2FB7797F91F30002BF9
:1024400003DCFB7F2033DBB2FB770023BB7765E047
:1024500007F10C02062307217868FFF75BFD3B7B41
:102460001B041A467B7B1B021343BA7B1343C3F343
:102470001103BB61FB7B1B041A463B7C1B0213430D
:102480007A7C1343C3F311037B617B68B3F8443652
:102490007A689B0013447A695A607B68B3F84436C3
:1024A0007A68C8339B001344BA695A607B68B3F8F2
:1024B00044360133254A82FB03129111DA178A1A36
:1024C000C82101FB02F29A1A92B27B68A3F8442653
:1024D0007B68B3F84636C72B08D87B68B3F8463616
:1024E00001339AB27B68A3F8462611E07B68B3F803
:1024F00048360133154A82FB03129111DA178A1A02
:10250000C82101FB02F29A1A92B27B68A3F848260E
:1025100097F91E30DBB20133DBB2BB7797F91E208F
:1025200097F91F309A4293DB7B68B3F84636182B35
:1025300008D97B6893F84B36002B03D17B680122C6
:1025400083F84B2600BF2037BD4680BD1F85EB5169
:1025500080B489B000AFF860B9607A60FB6893F826
:102560004B36002B00F0AE806423FB74FB68B3F89D
:102570004836FB83FB6893F84C3683F00103DBB2EB
:10258000002B3ED0524B00221A6029E0FB8B504AB0
:1025900012689200B9680A44F9689B000B445B68B2
:1025A0001360FB8B4A4A1268920079680A44F96802
:1025B000C8339B000B445B681360FB8B0133454AB7
:1025C00082FB03129111DA178A1AC82101FB02F269
:1025D0009A1A1346FB833E4B1B6801333C4A136037
:1025E000FA7C3B4B1B689A42D0DC394B1B68622B50
:1025F00052DDFB68012283F84C26354B00221A601D
:102600004AE00023BB6118E0BB6919339B00BA683C
:102610001A44BB699B00B9680B4412681A60BB6915
:1026200019339B007A681A44BB699B0079680B4494
:1026300012681A60BB690133BB61BB694A2BE3DDD9
:102640004B237B6125E0FB8B7A699200B9680A44D1
:10265000F9689B000B445B681360FB8B7A699200FE
:1026600079680A44F968C8339B000B445B681360BF
:10267000FB8B0133174A82FB03129111DA178A1A76
:10268000C82101FB02F29A1A1346FB837B690133CE
:102690007B617B69632BD6DDFB68FA8BA3F8482648
:1026A000FB68B3F84636193B9AB2FB68A3F8462696
:1026B000FB68B3F84636182B05D8FB68002283F870
:1026C0004B2600E000BF2437BD4680BC704700BFEA
:1026D000741000201F85EB5180B483B000AF786088
:1026E0007B6893F84B36012B01D1012300E00023D6
:1026F00018460C37BD4680BC704780B584B000AF2B
:10270000F860B9607A600123BA681F21F868FFF7A2
:1027100001FC01237A682021F868FFF7FBFB00BF6A
:102720001037BD4680BD80B584B000AF786007F13A
:102730000F020123FF217868FFF7ECFBFB7B152BD1
:1027400001D1012300E0002318461037BD4680BDAB
:1027500080B500AF084B1B68074A43F010031360B5
:10276000032000F047F9002000F008F8FFF7D8F840
:102770000023184680BD00BF0020024080B582B013
:1027800000AF7860124B1A68124B1B7819464FF451
:102790007A73B3FBF1F3B2FBF3F3184600F05FF981
:1027A0000346002B01D001230EE07B680F2B0AD8D3
:1027B000002279684FF0FF3000F027F9064A7B6865
:1027C0001360002300E0012318460837BD4680BD92
:1027D00008000020100000200C00002080B400AF92
:1027E000054B1B781A46054B1B681344034A1360BC
:1027F00000BFBD4680BC704710000020781000204C
:1028000080B400AF024B1B681846BD4680BC7047C1
:102810007810002080B584B000AF7860FFF7F0FF3B
:10282000B8607B68FB60FB68B3F1FF3F05D00A4BE3
:102830001B781A46FB681344FB6000BFFFF7E0FFFC
:102840000246BB68D31AFA689A42F7D800BF00BFA5
:102850001037BD4680BD00BF1000002080B485B099
:1028600000AF78607B6803F00703FB600C4BDB680C
:10287000BB60BA684FF6FF031340BB60FB681A02E7
:10288000BB68134343F0BF6343F40033BB60044AA7
:10289000BB68D36000BF1437BD4680BC704700BF23
:1028A00000ED00E080B400AF044BDB681B0A03F0CE
:1028B00007031846BD4680BC704700BF00ED00E02E
:1028C00080B483B000AF0346FB7197F90730002B4B
:1028D0000BDBFB7903F01F02064997F907305B0910
:1028E000012000FA02F241F8232000BF0C37BD4658
:1028F00080BC704700E100E080B483B000AF0346C5
:102900003960FB7197F90730002B0ADB3B68DAB2BC
:102910000C4997F907301201D2B20B4483F8002317
:102920000AE03B68DAB20849FB7903F00F03043B85
:102930001201D2B20B441A7600BF0C37BD4680BCE0
:10294000704700BF00E100E000ED00E080B489B016
:1029500000AFF860B9607A60FB6803F00703FB61C1
:10296000FB69C3F10703042B28BF0423BB61FB6988
:102970000433062B02D9FB69033B00E000237B6193
:102980004FF0FF32BB6902FA03F3DA43BB681A4027
:102990007B699A404FF0FF317B6901FA03F3D94319
:1029A0007B680B40134318462437BD4680BC7047F4
:1029B00080B582B000AF78607B68013BB3F1807F67
:1029C00001D301230FE00A4A7B68013B53600F21CA
:1029D0004FF0FF30FFF790FF054B00229A60044B49
:1029E00007221A60002318460837BD4680BD00BF85
:1029F00010E000E080B582B000AF78607868FFF743
:102A00002DFF00BF0837BD4680BD80B586B000AF42
:102A10000346B9607A60FB7300237B61FFF742FFD6
:102A200078617A68B9687869FFF790FF024697F98C
:102A30000F3011461846FFF75FFF00BF1837BD463D
:102A400080BD80B582B000AF0346FB7197F90730B7
:102A50001846FFF735FF00BF0837BD4680BD80B57B
:102A600082B000AF78607868FFF7A2FF034618468F
:102A70000837BD4680BD80B485B000AF78600023C4
:102A8000FB737B6893F82130022B08D07B6804220B
:102A90009A637B68002283F82020012320E07B6872
:102AA0001B681A687B681B6822F00E021A607B683C
:102AB0001B681A687B681B6822F001021A607B6839
:102AC0001A6C7B68DB6B012101FA02F25A607B68A9
:102AD000012283F821207B68002283F82020FB7BE1
:102AE00018461437BD4680BC7047000080B584B0DE
:102AF00000AF78600023FB737B6893F82130022BD2
:102B000005D07B6804229A630123FB7351E07B6844
:102B10001B681A687B681B6822F00E021A607B68CB
:102B20001B681A687B681B6822F001021A607B68C8
:102B30001B68224A934229D07B681B68204A934233
:102B400022D07B681B681F4A93421AD07B681B689F
:102B50001D4A934212D07B681B681C4A93420AD0DC
:102B60007B681B681A4A934202D14FF480130EE02F
:102B70004FF080730BE04FF4803308E04FF4805344
:102B800005E04FF4807302E0102300E00123114AB6
:102B900053607B68012283F821207B68002283F840
:102BA00020207B685B6B002B03D07B685B6B7868B5
:102BB0009847FB7B18461037BD4680BD0800024091
:102BC0001C00024030000240440002405800024015
:102BD0006C0002400000024080B48BB000AF78600F
:102BE000396000237B6200233B6269E101227B6A3A
:102BF00002FA03F3FB613B681B68FA691340BB618F
:102C0000BA69FB699A4240F058813B685B689A4A0E
:102C100093425ED0984A934275D8984A934258D0CE
:102C2000964A93426FD8964A934252D0944A93421E
:102C300069D8944A93424CD0924A934263D8924ABC
:102C4000934246D0904A93425DD8122B2AD8122B39
:102C500059D801A252F823F0D32C0008AD2C00085B
:102C6000BF2C0008012D0008072D0008072D0008C3
:102C7000072D0008072D0008072D0008072D000864
:102C8000072D0008072D0008072D0008072D000854
:102C9000072D0008072D0008072D0008B52C000897
:102CA000C92C0008794A934213D02CE03B68DB68BA
:102CB0003B6229E03B68DB6804333B6224E03B680D
:102CC000DB6808333B621FE03B68DB680C333B6228
:102CD0001AE03B689B68002B02D104233B6213E09F
:102CE0003B689B68012B05D108233B627B68FA692E
:102CF0001A6109E008233B627B68FA695A6103E0C4
:102D000000233B6200E000BFBB69FF2B01D87B685A
:102D100001E07B6804337B61BB69FF2B02D87B6ACF
:102D20009B0002E07B6A083B9B003B617B691A6861
:102D30000F213B6901FA03F3DB431A40396A3B690F
:102D400001FA03F31A437B691A603B685B6803F07E
:102D50008053002B00F0B1804D4B9B694C4A43F0EF
:102D6000010393614A4B9B6903F00103BB60BB689D
:102D7000484A7B6A9B08023352F82330FB607B6A27
:102D800003F003039B000F2202FA03F3DB43FA680C
:102D90001340FB607B68404A934213D07B683F4AF4
:102DA00093420DD07B683E4A934207D07B683D4AF0
:102DB000934201D1032306E0042304E0022302E04E
:102DC000012300E000237A6A02F00302920093409C
:102DD000FA681343FB602F497B6A9B080233FA6849
:102DE00041F823203B685B6803F48033002B06D056
:102DF0002D4B1A682C49BB6913430B6006E02A4B24
:102E00001A68BB69DB43284913400B603B685B6869
:102E100003F40033002B06D0234B5A682249BB69C8
:102E200013434B6006E0204B5A68BB69DB431E49E5
:102E300013404B603B685B6803F48013002B06D0A3
:102E4000194B9A681849BB6913438B6006E0164B0F
:102E50009A68BB69DB43144913408B603B685B682D
:102E600003F40013002B21D00F4BDA680E49BB6925
:102E70001343CB6021E000BF00003210000031108E
:102E8000000022100000211000001210000011109C
:102E9000001002400000014000080140000C014009
:102EA0000010014000140140000401400B4BDA689F
:102EB000BB69DB4309491340CB607B6A01337B620A
:102EC0003B681A687B6A22FA03F3002B7FF48EAE0C
:102ED00000BF00BF2C37BD4680BC704700040140D6
:102EE00080B485B000AF78600B467B807B689A68C1
:102EF0007B881340002B02D00123FB7301E00023E9
:102F0000FB73FB7B18461437BD4680BC704780B40A
:102F100083B000AF78600B467B8013467B707B7874
:102F2000002B03D07A887B681A6103E07B881A043F
:102F30007B681A6100BF0C37BD4680BC704780B407
:102F400085B000AF78600B467B807B68DB68FB60F8
:102F50007A88FB6813401A04FB68D9437B880B40CE
:102F60001A437B681A6100BF1437BD4680BC7047A6
:102F700080B582B000AF0346FB80084B5A69FB88DE
:102F80001340002B06D0054AFB885361FB88184686
:102F900004F050FC00BF0837BD4680BD000401406E
:102FA00080B584B000AF78607B68002B01D101232D
:102FB0002BE17B6893F83D30DBB2002B06D17B68B8
:102FC000002283F83C207868FEF7DCFC7B68242232
:102FD00083F83D207B681B681A687B681B6822F0B9
:102FE00001021A607B681B681A687B681B6842F4E0
:102FF00000421A607B681B681A687B681B6822F4B1
:1030000000421A6001F070FBF8607B685B68814ADF
:10301000934207D8FB68804A934294BF0123002360
:10302000DBB206E0FB687D4A934294BF0123002394
:10303000DBB2002B01D00123E7E0FB68784AA2FB5A
:1030400003239B0CBB607B681B685B6823F03F011C
:103050007B681B68BA680A435A607B681B681B6AF6
:1030600023F03F017B685B686A4A934202D8BB68E1
:10307000013309E0BB684FF4967202FB03F3694A1F
:10308000A2FB03239B0901337A6812680B43136286
:103090007B681B68DB6923F44F4222F0FF027B68E8
:1030A0005B685C498B4219D8FB68591E7B685B687A
:1030B0005B00B1FBF3F3591C40F6FC730B40002B93
:1030C0000AD0FB68591E7B685B685B00B1FBF3F3B9
:1030D0000133C3F30B0351E004234FE07B689B688B
:1030E000002B11D1FB68581E7B6859680B465B00AA
:1030F0000B44B0FBF3F30133C3F30B03002B0CBF02
:1031000001230023DBB212E0FB68581E7B6859687C
:103110000B469B000B4499000B44B0FBF3F30133C7
:10312000C3F30B03002B0CBF01230023DBB2002BE6
:1031300001D0012322E07B689B68002B0ED1FB6845
:10314000581E7B6859680B465B000B44B0FBF3F3D9
:103150000133C3F30B0343F400430FE0FB68581E35
:103160007B6859680B469B000B4499000B44B0FBED
:10317000F3F30133C3F30B0343F440437968096865
:103180001343CB617B681B681B6823F0C0017B681D
:10319000DA697B681B6A1A437B681B680A431A60FA
:1031A0007B681B689B6823F4034323F0FF037A6862
:1031B00011697A68D26811437A6812680B43936088
:1031C0007B681B68DB6823F0FF017B685A697B68BA
:1031D0009B691A437B681B680A43DA607B681B683B
:1031E0001A687B681B6842F001021A607B68002243
:1031F0001A647B68202283F83D207B6800221A63D2
:103200007B68002283F83E20002318461037BD4615
:1032100080BD00BFA08601007F841E00FF083D0026
:1032200083DE1B43D34D621080B588B002AFF860D7
:103230007A601A460B467B8113463B81FFF7E0FA22
:103240007861FB6893F83D30DBB2202B40F0E080E2
:103250007B690093192301227049F86800F092FC01
:103260000346002B01D00223D3E0FB6893F83C30E7
:10327000012B01D10223CCE0FB68012283F83C2022
:10328000FB681B681B6803F00103012B07D0FB6878
:103290001B681A68FB681B6842F001021A60FB6831
:1032A0001B681A68FB681B6822F400621A60FB68DE
:1032B000212283F83D20FB68102283F83E20FB6822
:1032C00000221A64FB687A685A62FB683A895A8558
:1032D000FB685B8D9AB2FB681A85FB68504ADA621C
:1032E00079897B693A6AF86800F0FCFA0346002B9A
:1032F00001D001238DE000233B61FB681B685B6903
:103300003B61FB681B689B693B613B6966E07A69CE
:10331000396AF86800F00CFD0346002B0DD0FB68FD
:103320001B6C042B07D1FB681B681A68FB681B68C1
:1033300042F400721A6001236BE0FB685B6A1A7842
:10334000FB681B681A61FB685B6A5A1CFB685A625F
:10335000FB685B8D9BB2013B9AB2FB685A85FB68A8
:103360001B8D013B9AB2FB681A85FB681B685B6981
:1033700003F00403042B1BD1FB681B8D002B17D01B
:10338000FB685B6A1A78FB681B681A61FB685B6AFA
:103390005A1CFB685A62FB685B8D9BB2013B9AB278
:1033A000FB685A85FB681B8D013B9AB2FB681A8546
:1033B0007A69396AF86800F0FCFC0346002B0DD0EE
:1033C000FB681B6C042B07D1FB681B681A68FB6841
:1033D0001B6842F400721A6001231AE0FB681B8D1F
:1033E000002B94D1FB681B681A68FB681B6842F4C9
:1033F00000721A60FB68202283F83D20FB680022DF
:1034000083F83E20FB68002283F83C20002300E084
:10341000022318461837BD4680BD00BF02001000C9
:103420000000FFFF80B58CB002AFF8607A601A46EA
:103430000B467B8113463B8100233B62FFF7E0F99B
:103440007862FB6893F83D30DBB2202B40F03F827E
:103450007B6A0093192301227F49F86800F092FBF0
:103460000346002B01D0022332E2FB6893F83C3084
:10347000012B01D102232BE2FB68012283F83C20BF
:10348000FB681B681B6803F00103012B07D0FB6876
:103490001B681A68FB681B6842F001021A60FB682F
:1034A0001B681A68FB681B6822F400621A60FB68DC
:1034B000222283F83D20FB68102283F83E20FB681F
:1034C00000221A64FB687A685A62FB683A895A8556
:1034D000FB685B8D9AB2FB681A85FB685F4ADA620B
:1034E00079897B6A3A6BF86800F07EFA0346002B14
:1034F00001D00123ECE1FB681B8D002B13D10023CD
:10350000FB61FB681B685B69FB61FB681B689B696F
:10351000FB61FB69FB681B681A68FB681B6842F467
:1035200000721A60C0E1FB681B8D012B1ED1FB6885
:103530001B681A68FB681B6822F480621A6072B606
:1035400000BF0023BB61FB681B685B69BB61FB6854
:103550001B689B69BB61BB69FB681B681A68FB68D9
:103560001B6842F400721A6062B635E0FB681B8D7E
:10357000022B1ED1FB681B681A68FB681B6842F4AB
:1035800000621A6072B600BF00237B61FB681B6893
:103590005B697B61FB681B689B697B617B69FB687E
:1035A0001B681A68FB681B6822F480621A6062B6A6
:1035B00012E0FB681B681A68FB681B6842F48062B3
:1035C0001A6000233B61FB681B685B693B61FB6819
:1035D0001B689B693B613B6966E1FB681B8D032BA4
:1035E00000F21F81FB681B8D012B23D17A6A396B96
:1035F000F86800F01FFC0346002B01D0012367E1AF
:10360000FB681B681A69FB685B6AD2B21A70FB68B8
:103610005B6A5A1CFB685A62FB681B8D013B9AB2BD
:10362000FB681A85FB685B8D9BB2013B9AB2FB6815
:103630005A8539E1FB681B8D022B52D17B6A0093BE
:103640003B6B00220649F86800F09CFA0346002B09
:1036500008D001233CE100BF020010000000FFFF82
:103660000400010072B600BFFB681B681A68FB68A3
:103670001B6842F400721A60FB681B681A69FB68D9
:103680005B6AD2B21A70FB685B6A5A1CFB685A62AA
:10369000FB681B8D013B9AB2FB681A85FB685B8D4A
:1036A0009BB2013B9AB2FB685A8562B600BFFB68C9
:1036B0001B681A69FB685B6AD2B21A70FB685B6AA6
:1036C0005A1CFB685A62FB681B8D013B9AB2FB686F
:1036D0001A85FB685B8D9BB2013B9AB2FB685A85E9
:1036E000E2E07B6A00933B6B00227B49F86800F0C4
:1036F00049FA0346002B01D00123E9E0FB681B686F
:103700001A68FB681B6822F480621A6072B600BFF8
:10371000FB681B681A69FB685B6AD2B21A70FB68A7
:103720005B6A5A1CFB685A62FB681B8D013B9AB2AC
:10373000FB681A85FB685B8D9BB2013B9AB2FB6804
:103740005A85664B1B68DB08654AA2FB03231A0AED
:1037500013469B001344DA00D31A3B623B6A013BD9
:103760003B623B6A002B18D1FB6800221A63FB689E
:10377000202283F83D20FB68002283F83E20FB686E
:103780001B6C43F02002FB681A6462B600BFFB6842
:10379000002283F83C2001239AE0FB681B685B69E8
:1037A00003F00403042BD9D1FB681B681A68FB687B
:1037B0001B6842F400721A60FB681B681A69FB6898
:1037C0005B6AD2B21A70FB685B6A5A1CFB685A6269
:1037D000FB681B8D013B9AB2FB681A85FB685B8D09
:1037E0009BB2013B9AB2FB685A8562B600BFFB6888
:1037F0001B681A69FB685B6AD2B21A70FB685B6A65
:103800005A1CFB685A62FB681B8D013B9AB2FB682D
:103810001A85FB685B8D9BB2013B9AB2FB685A85A7
:1038200042E07A6A396BF86800F004FB0346002B2B
:1038300001D001234CE0FB681B681A69FB685B6AD6
:10384000D2B21A70FB685B6A5A1CFB685A62FB684A
:103850001B8D013B9AB2FB681A85FB685B8D9BB29E
:10386000013B9AB2FB685A85FB681B685B6903F0F1
:103870000403042B18D1FB681B681A69FB685B6A98
:10388000D2B21A70FB685B6A5A1CFB685A62FB680A
:103890001B8D013B9AB2FB681A85FB685B8D9BB25E
:1038A000013B9AB2FB685A85FB681B8D002B7FF4A5
:1038B00094AEFB68202283F83D20FB68002283F849
:1038C0003E20FB68002283F83C20002300E0022316
:1038D00018462837BD4680BD0400010008000020BE
:1038E00089B5F81480B588B002AFF8607A603B60A3
:1038F0000B467B81FB68DB6A7B617B69082B06D00A
:103900007B69012B03D07B6913F5803F08D1FB68ED
:103910001B681A68FB681B6842F480721A600BE02F
:10392000FB681B6B122B07D1FB681B681A68FB68CE
:103930001B6842F480721A603B6800937B68002227
:103940004FF00111F86800F01DF90346002B0DD06F
:10395000FB681B681B6803F48073B3F5807F03D199
:10396000FB684FF400721A64032335E0FB681B699F
:10397000B3F5804F08D17B89DBB21A46FB681B6820
:1039800002F0FE021A611BE07B89DB11DBB203F05F
:103990000603DBB263F00F03DAB2FB681B681A613F
:1039A0003B687A680E49F86800F043F90346002B3B
:1039B00001D0012310E07B89DAB2FB681B681A6131
:1039C0003B687A680749F86800F033F90346002B32
:1039D00001D0012300E0002318461837BD4680BD02
:1039E000080001000200010080B588B002AFF86055
:1039F0007A603B600B467B81FB68DB6A7B61FB681E
:103A00001B681A68FB681B6842F480621A607B6955
:103A1000082B06D07B69012B03D07B6913F5803F0F
:103A200008D1FB681B681A68FB681B6842F4807247
:103A30001A600BE0FB681B6B112B07D1FB681B683E
:103A40001A68FB681B6842F480721A603B68009336
:103A50007B6800224FF00111F86800F093F80346EC
:103A6000002B0DD0FB681B681B6803F48073B3F553
:103A7000807F03D1FB684FF400721A64032379E05E
:103A8000FB681B69B3F5804F08D17B89DBB243F03B
:103A90000103DAB2FB681B681A615FE07B89DB1106
:103AA000DBB203F00603DBB263F00F03DAB2FB68AC
:103AB0001B681A613B687A683049F86800F0B9F809
:103AC0000346002B01D0012354E07B89DAB2FB6866
:103AD0001B681A613B687A682949F86800F0A9F800
:103AE0000346002B01D0012344E000233B61FB6827
:103AF0001B685B693B61FB681B689B693B613B69B9
:103B0000FB681B681A68FB681B6842F480721A60C5
:103B10003B6800937B6800224FF00111F86800F0C9
:103B200031F80346002B0DD0FB681B681B6803F4BB
:103B30008073B3F5807F03D1FB684FF400721A6481
:103B4000032317E07B89DB11DBB203F00603DBB252
:103B500063F00E03DAB2FB681B681A613B687A688F
:103B60000749F86800F065F80346002B01D00123EF
:103B700000E0002318461837BD4680BD080001004C
:103B80000200010080B584B000AFF860B9603B600E
:103B90001346FB7125E03B68B3F1FF3F21D0FEF7F0
:103BA0002FFE0246BB69D31A3A689A4202D33B6899
:103BB000002B16D1FB6800221A63FB68202283F8D1
:103BC0003D20FB68002283F83E20FB681B6C43F01D
:103BD0002002FB681A64FB68002283F83C20012362
:103BE00023E0BB681B0CDBB2012B0DD1FB681B680B
:103BF0005B69DA43BB6813409BB2002B0CBF012307
:103C00000023DBB21A460CE0FB681B689B69DA43B1
:103C1000BB6813409BB2002B0CBF01230023DBB217
:103C20001A46FB799A42B6D0002318461037BD4693
:103C300080BD80B584B000AFF860B9607A603B6049
:103C400051E0FB681B685B6903F48063B3F5806F28
:103C500023D1FB681B681A68FB681B6842F400727A
:103C60001A60FB681B686FF480625A61FB6800226F
:103C70001A63FB68202283F83D20FB68002283F84A
:103C80003E20FB681B6C43F00402FB681A64FB686F
:103C9000002283F83C20012346E07B68B3F1FF3F1C
:103CA00021D0FEF7ADFD02463B68D31A7A689A42EE
:103CB00002D37B68002B16D1FB6800221A63FB68D5
:103CC000202283F83D20FB68002283F83E20FB6819
:103CD0001B6C43F02002FB681A64FB68002283F827
:103CE0003C20012320E0BB681B0CDBB2012B0CD174
:103CF000FB681B685B69DA43BB6813409BB2002B0F
:103D000014BF01230023DBB20BE0FB681B689B6937
:103D1000DA43BB6813409BB2002B14BF012300237E
:103D2000DBB2002B8DD1002318461037BD4680BD75
:103D300080B584B000AFF860B9607A602DE0F868B3
:103D400000F0CEF80346002B01D001232DE0BB6824
:103D5000B3F1FF3F21D0FEF753FD02467B68D31A33
:103D6000BA689A4202D3BB68002B16D1FB680022C6
:103D70001A63FB68202283F83D20FB68002283F849
:103D80003E20FB681B6C43F02002FB681A64FB6852
:103D9000002283F83C20012307E0FB681B685B6975
:103DA00003F08003802BCAD1002318461037BD468C
:103DB00080BD80B584B000AFF860B9607A602DE056
:103DC000F86800F08DF80346002B01D001232DE0A8
:103DD000BB68B3F1FF3F21D0FEF712FD02467B68BE
:103DE000D31ABA689A4202D3BB68002B16D1FB687B
:103DF00000221A63FB68202283F83D20FB68002222
:103E000083F83E20FB681B6C43F02002FB681A64B9
:103E1000FB68002283F83C20012307E0FB681B6855
:103E20005B6903F00403042BCAD100231846103742
:103E3000BD4680BD80B584B000AFF860B9607A60DF
:103E400042E0FB681B685B6903F01003102B19D17B
:103E5000FB681B686FF010025A61FB6800221A634E
:103E6000FB68202283F83D20FB68002283F83E2077
:103E7000FB681A6CFB681A64FB68002283F83C201C
:103E8000012329E0FEF7BCFC02467B68D31ABA681E
:103E90009A4202D3BB68002B16D1FB6800221A633A
:103EA000FB68202283F83D20FB68002283F83E2037
:103EB000FB681B6C43F02002FB681A64FB6800225D
:103EC00083F83C20012307E0FB681B685B6903F073
:103ED0004003402BB5D1002318461037BD4680BDA6
:103EE00080B483B000AF78607B681B685B6903F4C3
:103EF0008063B3F5806F1BD17B681B686FF48062B1
:103F00005A617B6800221A637B68202283F83D2077
:103F10007B68002283F83E207B681B6C43F0040220
:103F20007B681A647B68002283F83C20012300E050
:103F3000002318460C37BD4680BC704780B586B05C
:103F400000AF78607B68002B01D1012372E27B68AF
:103F50001B6803F00103002B00F08780924B5B6825
:103F600003F00C03042B0CD08F4B5B6803F00C03A5
:103F7000082B12D18C4B5B6803F48033B3F5803F80
:103F80000BD1894B1B6803F40033002B6CD07B688A
:103F90005B68002B68D101234CE27B685B68B3F55A
:103FA000803F06D1804B1B687F4A43F48033136007
:103FB0002EE07B685B68002B0CD17B4B1B687A4A38
:103FC00023F480331360784B1B68774A23F48023F3
:103FD00013601DE07B685B68B3F5A02F0CD1724BBA
:103FE0001B68714A43F4802313606F4B1B686E4A51
:103FF00043F4803313600BE06B4B1B686A4A23F475
:1040000080331360684B1B68674A23F48023136076
:104010007B685B68002B13D0FEF7F2FB386108E089
:10402000FEF7EEFB02463B69D31A642B01D903234A
:1040300000E25D4B1B6803F40033002BF0D014E06A
:10404000FEF7DEFB386108E0FEF7DAFB02463B696B
:10405000D31A642B01D90323ECE1534B1B6803F4FF
:104060000033002BF0D100E000BF7B681B6803F039
:104070000203002B63D04C4B5B6803F00C03002B56
:104080000BD0494B5B6803F00C03082B1CD1464B4B
:104090005B6803F48033002B16D1434B1B6803F09D
:1040A0000203002B05D07B681B69012B01D0012383
:1040B000C0E13D4B1B6823F0F8027B685B69DB00C5
:1040C000394913430B603AE07B681B69002B20D011
:1040D000364B01221A60FEF793FB386108E0FEF7C9
:1040E0008FFB02463B69D31A022B01D90323A1E1BE
:1040F0002D4B1B6803F00203002BF0D02A4B1B68EA
:1041000023F0F8027B685B69DB00274913430B60EF
:1041100015E0264B00221A60FEF772FB386108E0BA
:10412000FEF76EFB02463B69D31A022B01D903232B
:1041300080E11D4B1B6803F00203002BF0D17B686C
:104140001B6803F00803002B3AD07B689B69002BA7
:1041500019D0174B01221A60FEF752FB386108E0B4
:10416000FEF74EFB02463B69D31A022B01D903230B
:1041700060E10D4B5B6A03F00203002BF0D00120DD
:1041800000F0DAFA1CE00A4B00221A60FEF738FB56
:1041900038610FE0FEF734FB02463B69D31A022B6D
:1041A00008D9032346E100BF00100240000042424C
:1041B00080044242924B5B6A03F00203002BE9D178
:1041C0007B681B6803F00403002B00F0A68000232B
:1041D000FB758B4BDB6903F08053002B0DD1884BB3
:1041E000DB69874A43F08053D361854BDB6903F079
:1041F0008053BB60BB680123FB75824B1B6803F4D3
:104200008073002B18D17F4B1B687E4A43F4807368
:104210001360FEF7F5FA386108E0FEF7F1FA02469E
:104220003B69D31A642B01D9032303E1754B1B6847
:1042300003F48073002BF0D07B68DB68012B06D180
:104240006F4B1B6A6E4A43F0010313622DE07B68DB
:10425000DB68002B0CD16A4B1B6A694A23F001030F
:104260001362674B1B6A664A23F0040313621CE067
:104270007B68DB68052B0CD1614B1B6A604A43F0FD
:10428000040313625E4B1B6A5D4A43F00103136231
:104290000BE05B4B1B6A5A4A23F001031362584B35
:1042A0001B6A574A23F0040313627B68DB68002B08
:1042B00015D0FEF7A5FA38610AE0FEF7A1FA02462A
:1042C0003B69D31A41F28832934201D90323B1E00A
:1042D0004B4B1B6A03F00203002BEED014E0FEF7F9
:1042E0008FFA38610AE0FEF78BFA02463B69D31A6F
:1042F00041F28832934201D903239BE0404B1B6A71
:1043000003F00203002BEED1FB7D012B05D13C4BCA
:10431000DB693B4A23F08053D3617B68DB69002B68
:1043200000F08780364B5B6803F00C03082B61D0EC
:104330007B68DB69022B46D1334B00221A60FEF703
:104340005FFA386108E0FEF75BFA02463B69D31A70
:10435000022B01D903236DE0294B1B6803F0007386
:10436000002BF0D17B681B6AB3F5803F08D1244B4A
:104370005B6823F400327B689B68214913434B60E0
:104380001F4B5B6823F474127B68196A7B685B6A55
:104390000B431B4913434B601B4B01221A60FEF772
:1043A0002FFA386108E0FEF72BFA02463B69D31A70
:1043B000022B01D903233DE0114B1B6803F000736E
:1043C000002BF0D035E0104B00221A60FEF718FAEF
:1043D000386108E0FEF714FA02463B69D31A022B53
:1043E00001D9032326E0064B1B6803F00073002B62
:1043F000F0D11EE07B68DB69012B07D1012319E0B6
:104400000010024000700040600042420B4B5B68AD
:10441000FB60FB6803F480327B681B6A9A4206D11A
:10442000FB6803F470127B685B6A9A4201D0012337
:1044300000E0002318461837BD4680BD001002403A
:1044400080B584B000AF786039607B68002B01D103
:104450000123D0E06A4B1B6803F007033A689A42D5
:1044600010D9674B1B6823F0070265493B6813436B
:104470000B60634B1B6803F007033A689A4201D054
:104480000123B8E07B681B6803F00203002B20D0F7
:104490007B681B6803F00403002B05D0594B5B6855
:1044A000584A43F4E06353607B681B6803F00803D9
:1044B000002B05D0534B5B68524A43F46053536062
:1044C000504B5B6823F0F0027B689B684D491343B7
:1044D0004B607B681B6803F00103002B40D07B68B6
:1044E0005B68012B07D1474B1B6803F40033002B9B
:1044F00015D101237FE07B685B68022B07D1414B1C
:104500001B6803F00073002B09D1012373E03D4BBE
:104510001B6803F00203002B01D101236BE0394B30
:104520005B6823F003027B685B68364913434B608A
:10453000FEF766F9F8600AE0FEF762F90246FB68EA
:10454000D31A41F28832934201D9032353E02D4B11
:104550005B6803F00C027B685B689B009A42EBD1BE
:10456000274B1B6803F007033A689A4210D2244B8A
:104570001B6823F0070222493B6813430B60204B62
:104580001B6803F007033A689A4201D0012332E026
:104590007B681B6803F00403002B08D0194B5B6891
:1045A00023F4E0627B68DB68164913434B607B6849
:1045B0001B6803F00803002B09D0124B5B6823F43F
:1045C00060527B681B69DB000E4913434B6000F0AF
:1045D00021F802460B4B5B681B0903F00F030A49E5
:1045E000CB5C22FA03F3094A1360094B1B68184697
:1045F000FEF7C4F8002318461037BD4680BD00BF43
:104600000020024000100240C49100080800002071
:104610000C00002090B48AB000AF294B3C1D0FCB9A
:1046200084E80F0040F201233B800023FB6100235C
:10463000BB6100237B6200237B6100233B62214B33
:104640005B68FB61FB6903F00C03042B02D0082BB1
:1046500003D02BE01C4B3B622BE0FB699B0C03F06F
:104660000F0328333B4413F8243C7B61FB6903F4BC
:104670008033002B12D0134B5B685B0C03F00103FB
:1046800028333B4413F8283CBB617B690E4A03FB8B
:1046900002F2BB69B2FBF3F37B6204E07B690B4A75
:1046A00002FB03F37B627B6A3B6202E0084B3B62E6
:1046B00000BF3B6A18462837BD4690BC704700BF14
:1046C000C08D0008001002400024F40000093D00E5
:1046D00000127A0080B400AF024B1B681846BD463A
:1046E00080BC70470800002080B500AFFFF7F2FFE4
:1046F0000246054B5B681B0A03F007030349CB5CCA
:1047000022FA03F3184680BD00100240D49100083D
:1047100080B500AFFFF7DEFF0246054B5B68DB0AA2
:1047200003F007030349CB5C22FA03F3184680BD6C
:1047300000100240D491000880B485B000AF7860CA
:104740000A4B1B680A4AA2FB03235B0A7A6802FB36
:1047500003F3FB6000BFFB685A1EFA60002BF9D11F
:1047600000BF00BF1437BD4680BC70470800002062
:10477000D34D621080B582B000AF78607B68002BAB
:1047800001D1012376E07B685B6A002B08D17B684E
:104790005B68B3F5827F09D07B680022DA6105E0AF
:1047A0007B6800221A617B6800225A617B680022C4
:1047B0009A627B6893F85130DBB2002B06D17B689C
:1047C000002283F850207868FDF71AF97B680222EE
:1047D00083F851207B681B681A687B681B6822F08D
:1047E00040021A607B685B6803F482727B689B6896
:1047F00003F404431A437B68DB6803F400631A4341
:104800007B681B6903F002031A437B685B6903F052
:1048100001031A437B689B6903F400731A437B68A6
:10482000DB6903F038031A437B681B6A03F08003DB
:1048300042EA03017B689B6A03F400527B681B68B1
:104840000A431A607B689B691A0C7B681B6802F03C
:1048500004025A607B681B68DA697B681B6822F473
:104860000062DA617B6800225A657B68012283F866
:104870005120002318460837BD4680BD80B588B05A
:1048800000AFF860B9603B601346FB800023FB7704
:10489000FB6893F85030012B01D1022326E1FB681D
:1048A000012283F85020FDF7ABFFB861FB88FB8243
:1048B000FB6893F85130DBB2012B02D00223FB7767
:1048C0000BE1BB68002B02D0FB88002B02D1012337
:1048D000FB7702E1FB68032283F85120FB6800228A
:1048E0005A65FB68BA681A63FB68FA889A86FB689F
:1048F000FA88DA86FB6800229A63FB6800229A87AE
:10490000FB680022DA87FB6800225A64FB680022F9
:104910001A64FB689B68B3F5004F0FD1FB681B68F6
:104920001A68FB681B6822F040021A60FB681B686B
:104930001A68FB681B6842F480421A60FB681B68B7
:104940001B6803F04003402B07D0FB681B681A6804
:10495000FB681B6842F040021A60FB68DB68B3F535
:10496000006F4BD1FB685B68002B02D0FB8A012BE8
:104970003ED1FB681B6B1A88FB681B68DA60FB681A
:104980001B6B9A1CFB681A63FB68DB8E9BB2013BB6
:104990009AB2FB68DA862BE0FB681B689B6803F021
:1049A0000203022B12D1FB681B6B1A88FB681B6881
:1049B000DA60FB681B6B9A1CFB681A63FB68DB8E72
:1049C0009BB2013B9AB2FB68DA8611E0FDF718FF53
:1049D0000246BB69D31A3A689A4203D83B68B3F1DE
:1049E000FF3F02D13B68002B02D10323FB7774E029
:1049F000FB68DB8E9BB2002BCED14CE0FB685B6882
:104A0000002B02D0FB8A012B40D1FB681A6BFB689C
:104A10001B680C3312781A70FB681B6B5A1CFB68FE
:104A20001A63FB68DB8E9BB2013B9AB2FB68DA86A5
:104A30002CE0FB681B689B6803F00203022B13D178
:104A4000FB681A6BFB681B680C3312781A70FB68E2
:104A50001B6B5A1CFB681A63FB68DB8E9BB2013B25
:104A60009AB2FB68DA8611E0FDF7CAFE0246BB691E
:104A7000D31A3A689A4203D83B68B3F1FF3F02D198
:104A80003B68002B02D10323FB7726E0FB68DB8E1B
:104A90009BB2002BCDD1BA693968F86800F01AFED4
:104AA0000346002B02D0FB6820225A65FB689B68F6
:104AB000002B0AD100233B61FB681B68DB683B616C
:104AC000FB681B689B683B613B69FB685B6D002B67
:104AD00002D00123FB7700E000BFFB68012283F8CE
:104AE0005120FB68002283F85020FB7F18462037B6
:104AF000BD4680BD80B588B002AFF860B9603B604C
:104B00001346FB800023FB75FB685B68B3F5827F6F
:104B100012D1FB689B68002B0ED1FB68042283F83E
:104B20005120FA883B6800931346BA68B968F86860
:104B300000F0F1F80346EAE0FB6893F85030012BEF
:104B400001D10223E3E0FB68012283F85020FDF746
:104B500057FE3861FB6893F85130DBB2012B02D06D
:104B60000223FB75CAE0BB68002B02D0FB88002B38
:104B700002D10123FB75C1E0FB68042283F85120B8
:104B8000FB6800225A65FB68BA689A63FB68FA887A
:104B90009A87FB68FA88DA87FB6800221A63FB6849
:104BA00000229A86FB680022DA86FB6800221A64DB
:104BB000FB6800225A64FB689B68B3F5004F0FD175
:104BC000FB681B681A68FB681B6822F040021A60C9
:104BD000FB681B681A68FB681B6822F480421A6035
:104BE000FB681B681B6803F04003402B07D0FB6881
:104BF0001B681A68FB681B6842F040021A60FB6879
:104C0000DB68002B62D12EE0FB681B689B6803F019
:104C10000103012B15D1FB681B6803F10C02FB6833
:104C20009B6B1278D2B21A70FB689B6B5A1CFB68A4
:104C30009A63FB68DB8F9BB2013B9AB2FB68DA8711
:104C400011E0FDF7DDFD02463B69D31A3A689A424E
:104C500003D83B68B3F1FF3F02D13B68002B02D180
:104C60000323FB754AE0FB68DB8F9BB2002BCBD1A3
:104C700031E0FB681B689B6803F00103012B13D133
:104C8000FB681B68DA68FB689B6B92B21A80FB6852
:104C90009B6B9A1CFB689A63FB68DB8F9BB2013BA2
:104CA0009AB2FB68DA8711E0FDF7AAFD02463B697C
:104CB000D31A3A689A4203D83B68B3F1FF3F02D156
:104CC0003B68002B02D10323FB7517E0FB68DB8FE9
:104CD0009BB2002BCDD13A693968F86800F0A8FC86
:104CE0000346002B02D0FB6820225A65FB685B6DEF
:104CF000002B02D00123FB7500E000BFFB680122FE
:104D000083F85120FB68002283F85020FB7D184671
:104D10001837BD4680BD80B58CB000AFF860B96073
:104D20007A607B800123FB62002387F82B30FB68CD
:104D300093F85030012B01D102238AE1FB68012254
:104D400083F85020FDF75CFD7862FB6893F85130E2
:104D500087F82330FB685B68FB617B887B8397F86F
:104D60002330012B0FD0FB69B3F5827F07D1FB689D
:104D70009B68002B03D197F82330042B03D0022328
:104D800087F82B305BE1BB68002B05D07B68002BDC
:104D900002D07B88002B03D1012387F82B304EE112
:104DA000FB6893F85130DBB2042B03D0FB6805227B
:104DB00083F85120FB6800225A65FB687A689A6381
:104DC000FB687A88DA87FB687A889A87FB68BA6812
:104DD0001A63FB687A88DA86FB687A889A86FB68A9
:104DE00000221A64FB6800225A64FB681B681B6877
:104DF00003F04003402B07D0FB681B681A68FB6870
:104E00001B6842F040021A60FB68DB68B3F5006F74
:104E100078D1FB685B68002B02D07B8B012B66D1BD
:104E2000FB681B6B1A88FB681B68DA60FB681B6BEE
:104E30009A1CFB681A63FB68DB8E9BB2013B9AB23B
:104E4000FB68DA8653E0FB681B689B6803F002038B
:104E5000022B1BD1FB68DB8E9BB2002B16D0FB6AAA
:104E6000012B13D1FB681B6B1A88FB681B68DA6087
:104E7000FB681B6B9A1CFB681A63FB68DB8E9BB29A
:104E8000013B9AB2FB68DA860023FB62FB681B6871
:104E90009B6803F00103012B19D1FB68DB8F9BB2E8
:104EA000002B14D0FB681B68DA68FB689B6B92B21E
:104EB0001A80FB689B6B9A1CFB689A63FB68DB8F0C
:104EC0009BB2013B9AB2FB68DA870123FB62FDF7D4
:104ED00097FC02467B6AD31ABA6B9A4207D8BB6B1F
:104EE000B3F1FF3F03D0032387F82B30A7E0FB6823
:104EF000DB8E9BB2002BA6D1FB68DB8F9BB2002B15
:104F0000A1D17CE0FB685B68002B02D07B8B012B7E
:104F10006BD1FB681A6BFB681B680C3312781A7034
:104F2000FB681B6B5A1CFB681A63FB68DB8E9BB229
:104F3000013B9AB2FB68DA8657E0FB681B689B6806
:104F400003F00203022B1CD1FB68DB8E9BB2002B0B
:104F500017D0FB6A012B14D1FB681A6BFB681B6826
:104F60000C3312781A70FB681B6B5A1CFB681A63AF
:104F7000FB68DB8E9BB2013B9AB2FB68DA860023AA
:104F8000FB62FB681B689B6803F00103012B19D1CE
:104F9000FB68DB8F9BB2002B14D0FB681B68DA68C0
:104FA000FB689B6BD2B21A70FB689B6B5A1CFB6848
:104FB0009A63FB68DB8F9BB2013B9AB2FB68DA878E
:104FC0000123FB62FDF71CFC02467B6AD31ABA6B15
:104FD0009A4203D8BB6BB3F1FF3F02D1BB6B002BEE
:104FE00003D1032387F82B3029E0FB68DB8E9BB2CB
:104FF000002BA2D1FB68DB8F9BB2002B9DD17A6A7C
:10500000B96BF86800F066FB0346002B06D001235D
:1050100087F82B30FB6820225A6510E0FB689B68FC
:10502000002B0BD100237B61FB681B68DB687B6175
:10503000FB681B689B687B617B6900E000BFFB68C5
:10504000012283F85120FB68002283F8502097F852
:105050002B3018463037BD4680BD000080B487B085
:1050600000AFF860B9607A607B800023FB75FB6855
:1050700093F85030012B01D1022375E0FB68012227
:1050800083F85020FB6893F85130BB75FB685B6870
:105090003B61BB7D012B0DD03B69B3F5827F06D10F
:1050A000FB689B68002B02D1BB7D042B02D002233E
:1050B000FB7554E0BB68002B05D07B68002B02D049
:1050C0007B88002B02D10123FB7548E0FB6893F835
:1050D0005130DBB2042B03D0FB68052283F851204A
:1050E000FB6800225A65FB68BA681A63FB687A8815
:1050F0009A86FB687A88DA86FB687A689A63FB6826
:105100007A889A87FB687A88DA87FB68DB68002BE5
:1051100006D0FB68174A1A64FB68174A5A6405E010
:10512000FB68164A1A64FB68154A5A64FB681B68D8
:105130005A68FB681B6842F0E0025A60FB681B6813
:105140001B6803F04003402B08D0FB681B681A68FB
:10515000FB681B6842F040021A6000E000BFFB6879
:10516000002283F85020FB7D18461C37BD4680BCCA
:10517000704700BF61540008C15400089D530008E7
:105180000154000880B588B000AF78607B681B6868
:105190005B68FB617B681B689B68BB61BB699B09A3
:1051A00003F00103002B0FD1BB6903F00103002BB7
:1051B0000AD0FB699B0903F00103002B04D07B6834
:1051C0001B6C78689847BEE0BB695B0803F001037D
:1051D000002B0AD0FB69DB0903F00103002B04D08C
:1051E0007B685B6C78689847ADE0BB695B0903F04E
:1051F0000103002B06D1BB699B0903F00103002BBF
:1052000000F0A180FB695B0903F00103002B00F0B3
:105210009A80BB699B0903F00103002B23D07B68B4
:1052200093F85130DBB2032B11D07B685B6D43F0F8
:1052300004027B685A6500237B617B681B68DB681E
:105240007B617B681B689B687B617B690BE000234B
:105250003B617B681B68DB683B617B681B689B6804
:105260003B613B696FE0BB695B0903F00103002B05
:1052700014D07B685B6D43F001027B685A650023A4
:10528000FB607B681B689B68FB607B681B681A6817
:105290007B681B6822F040021A60FB687B685B6DCC
:1052A000002B4FD07B681B685A687B681B6822F014
:1052B000E0025A607B68012283F85120FB6903F009
:1052C0000203002B04D1FB6903F00103002B34D04F
:1052D0007B681B685A687B681B6822F003025A606F
:1052E0007B68DB6C002B11D07B68DB6C174A5A6340
:1052F0007B68DB6C1846FDF7F9FB0346002B05D0F5
:105300007B685B6D43F040027B685A657B689B6CF1
:10531000002B16D07B689B6C0C4A5A637B689B6C95
:105320001846FDF7E3FB0346002B0AD07B685B6D54
:1053300043F040027B685A6503E0786800F011F89A
:1053400000E000BF00BF2037BD4680BD7553000898
:1053500080B483B000AF786000BF0C37BD4680BC1E
:10536000704780B483B000AF786000BF0C37BD4693
:1053700080BC704780B584B000AF78607B685B6AA2
:10538000FB60FB680022DA87FB680022DA86F86897
:10539000FFF7E7FF00BF1037BD4680BD80B582B084
:1053A00000AF78607B681B6803F10C027B689B6B25
:1053B0001278D2B21A707B689B6B5A1C7B689A6316
:1053C0007B68DB8F9BB2013B9AB27B68DA877B6894
:1053D000DB8F9BB2002B0FD17B681B685A687B6800
:1053E0001B6822F060025A607B68DB8E9BB2002B48
:1053F00002D1786800F08CF900BF0837BD4680BD47
:1054000080B582B000AF78607B681A6B7B681B68E0
:105410000C3312781A707B681B6B5A1C7B681A63FA
:105420007B68DB8E9BB2013B9AB27B68DA867B6835
:10543000DB8E9BB2002B0FD17B681B685A687B68A0
:105440001B6822F080025A607B68DB8F9BB2002BC6
:1054500002D1786800F05CF900BF0837BD4680BD16
:1054600080B582B000AF78607B681B68DA687B68C3
:105470009B6B92B21A807B689B6B9A1C7B689A63C9
:105480007B68DB8F9BB2013B9AB27B68DA877B68D3
:10549000DB8F9BB2002B0FD17B681B685A687B683F
:1054A0001B6822F040025A607B68DB8E9BB2002BA7
:1054B00002D1786800F02CF900BF0837BD4680BDE6
:1054C00080B582B000AF78607B681B6B1A887B6800
:1054D0001B68DA607B681B6B9A1C7B681A637B68AD
:1054E000DB8E9BB2013B9AB27B68DA867B68DB8EEF
:1054F0009BB2002B0FD17B681B685A687B681B68C6
:1055000022F080025A607B68DB8F9BB2002B02D1B5
:10551000786800F0FDF800BF0837BD4680BD000088
:1055200080B588B000AFF860B9603B601346FB718E
:10553000FDF766F90246BB6A9B1A3A681344FB61A1
:10554000FDF75EF9B861394B1B685B011B0DFA6909
:1055500002FB03F37B6154E03B68B3F1FF3F50D0A3
:10556000FDF74EF90246BB69D31AFA699A4202D98D
:10557000FB69002B3DD1FB681B685A68FB681B6800
:1055800022F0E0025A60FB685B68B3F5827F11D1BC
:10559000FB689B68B3F5004F04D0FB689B68B3F5CC
:1055A000806F07D1FB681B681A68FB681B6822F0D4
:1055B00040021A60FB689B6AB3F5005F0FD1FB687D
:1055C0001B681A68FB681B6822F400521A60FB68AB
:1055D0001B681A68FB681B6842F400521A60FB687B
:1055E000012283F85120FB68002283F85020032316
:1055F00017E07B69002B01D10023FB617B69013B34
:105600007B61FB681B689A68BB681340BA689A4262
:105610000CBF01230023DBB21A46FB799A429BD1CF
:10562000002318462037BD4680BD00BF080000207B
:1056300080B586B002AFF860B9607A60FB685B68DD
:10564000B3F5827F11D1FB689B68B3F5004F04D09E
:10565000FB689B68B3F5806F07D1FB681B681A680D
:10566000FB681B6822F040021A60FB685B68B3F5B8
:10567000827F17D1FB689B68B3F5806F12D17B687E
:105680000093BB6800220121F868FFF749FF034639
:10569000002B1AD0FB685B6D43F02002FB685A6553
:1056A000032313E07B680093BB6800228021F86825
:1056B000FFF736FF0346002B07D0FB685B6D43F016
:1056C0002002FB685A65032300E0002318461037C8
:1056D000BD4680BD80B586B002AFF860B9607A6023
:1056E0007B680093BB6800228021F868FFF718FFF1
:1056F0000346002B07D0FB685B6D43F02002FB687C
:105700005A65032300E0002318461037BD4680BDCC
:1057100080B586B000AF7860354B1B68354AA2FB78
:1057200003235B0A642202FB03F33B61FDF768F885
:1057300078617B681B685A687B681B6822F02002CE
:105740005A603B69002B06D17B685B6D43F02002F9
:105750007B685A6509E03B69013B3B617B681B68DC
:105760009B6803F00203002BEBD07A696421786810
:10577000FFF7B0FF0346002B05D07B685B6D43F05D
:1057800020027B685A657B689B68002B0AD1002346
:10579000FB607B681B68DB68FB607B681B689B6841
:1057A000FB60FB687B685B6D002B15D17B6893F811
:1057B0005130DBB2042B07D17B68012283F85120E2
:1057C0007868FFF7C5FD0EE07B68012283F8512061
:1057D000786802F023F906E07B68012283F8512003
:1057E0007868FFF7BEFD00BF1837BD4680BD00BF1B
:1057F00008000020F119760580B582B000AF78600E
:105800007B68002B01D1012341E07B6893F83D3098
:10581000DBB2002B06D17B68002283F83C2078683D
:10582000FCF77CF97B68022283F83D207B681A68CC
:105830007B6804331946104600F06EFC7B68012239
:1058400083F846207B68012283F83E207B68012292
:1058500083F83F207B68012283F840207B68012287
:1058600083F841207B68012283F842207B68012273
:1058700083F843207B68012283F844207B6801225F
:1058800083F845207B68012283F83D2000231846D9
:105890000837BD4680BD000080B485B000AF786099
:1058A0007B6893F83D30DBB2012B01D001233AE055
:1058B0007B68022283F83D207B681B68DA687B687E
:1058C0001B6842F00102DA607B681B68184A934249
:1058D0000ED07B681B68B3F1804F09D07B681B68D2
:1058E000144A934204D07B681B68134A934211D137
:1058F0007B681B689B6803F00703FB60FB68062B53
:1059000010D07B681B681A687B681B6842F0010234
:105910001A6007E07B681B681A687B681B6842F0A6
:1059200001021A60002318461437BD4680BC704738
:10593000002C0140000400400008004080B483B007
:1059400000AF78607B681B68DA687B681B6822F0B0
:105950000102DA607B681B681A6A41F21113134076
:10596000002B0FD17B681B681A6A40F24443134036
:10597000002B07D17B681B681A687B681B6822F0C4
:1059800001021A607B68012283F83D20002318463B
:105990000C37BD4680BC704780B582B000AF7860E0
:1059A0007B68002B01D1012341E07B6893F83D30F7
:1059B000DBB2002B06D17B68002283F83C2078689C
:1059C00000F039F87B68022283F83D207B681A6872
:1059D0007B6804331946104600F09EFB7B68012269
:1059E00083F846207B68012283F83E207B680122F1
:1059F00083F83F207B68012283F840207B680122E6
:105A000083F841207B68012283F842207B680122D1
:105A100083F843207B68012283F844207B680122BD
:105A200083F845207B68012283F83D200023184637
:105A30000837BD4680BD80B483B000AF786000BF3A
:105A40000C37BD4680BC704780B582B000AF78602F
:105A500039607B68002B01D1012341E07B6893F81A
:105A60003D30DBB2002B06D17B68002283F83C205E
:105A7000786800F039F87B68022283F83D207B6863
:105A80001A687B6804331946104600F045FB7B68B2
:105A90001B681A687B681B6822F008021A607B6822
:105AA0001B6819687B681B683A680A431A607B6840
:105AB000012283F846207B68012283F83E207B6820
:105AC000012283F83F207B68012283F842207B6813
:105AD000012283F843207B68012283F83D200023C4
